:100000000C942A000C940B040C9435040C945F049B
:100010000C9447000C9447000C9447000C94470044
:100020000C9447000C9447000C9447000C94E50393
:100030000C9447000C9447000C9447000C94470024
:100040000C9447000C9447000C9447000C94470014
:100050000C94470011241FBECFE5D4E0DEBFCDBF16
:1000600011E0A0E6B0E0EAE6F0E202C005900D92F1
:10007000AA3EB107D9F712E0AAEEB1E001C01D9285
:10008000A830B107E1F70E94520D0C9433100C9484
:10009000000081E00895DF93CF9300D0CDB7DEB7A5
:1000A00081E089838A8387E791E0BE016F5F7F4F9C
:1000B0000E94600B8EE391E0BE016E5F7F4F0E9455
:1000C000600B9981992331F48A81813019F410925F
:1000D0002E010FC08A81882349F4913019F490933E
:1000E0002E0107C0992311F483E001C082E08093C0
:1000F0002E0181E00F900F90CF91DF9108958DE751
:1001000091E061E041E020E630E030E00E94EB0960
:1001100080912E01813009F045C080912D01882306
:1001200039F48DE791E061E041E022E730E038C04A
:10013000813039F48DE791E061E041E028E730E07B
:100140002FC0823039F48DE791E061E041E02FE784
:1001500030E026C0833039F48DE791E061E041E082
:1001600025E830E01DC0843039F48DE791E061E08E
:1001700041E02BE830E014C0853039F48DE791E0A0
:1001800061E041E020E930E00BC08DE791E00E94A2
:10019000AB098DE791E061E041E025E930E030E036
:1001A0000E94EB0981E0089580912F01882349F492
:1001B0008DE691E061E00E949F058BE691E061E0B1
:1001C00008C08DE691E060E00E949F058BE691E01B
:1001D00060E00E949F0581E008951F93DF93CF9315
:1001E00000D000D000D0CDB7DEB70E944B001091F8
:1001F0002E01113009F0E8C019831A831B831C8378
:100200001D831E8382E491E0BE016F5F7F4F0E94D9
:10021000600B86E491E0BE016E5F7F4F0E94600B31
:100220008AE491E0BE016D5F7F4F0E94600B8EE417
:1002300091E0BE016C5F7F4F0E94600B82E591E010
:10024000BE016B5F7F4F0E94600B86E591E0BE01AF
:100250006A5F7F4F0E94600B8981882321F410928E
:100260002D011A8306C08A81882339F410932D0149
:1002700019831B831C831D8322C08B81882331F447
:1002800083E080932D0119831A83F4CF8C81882316
:1002900039F484E080932D0119831A831B83EBCFFB
:1002A0008D81882311F482E004C08E81882339F483
:1002B00085E080932D0119831A831B831C83109181
:1002C0002D01112399F411E01E8382E491E0BE0117
:1002D0006A5F7F4F0E94600B8E81882319F48AE544
:1002E00091E067C01E838AE591E068C0113091F407
:1002F0001E8386E491E0BE016A5F7F4F0E94600B1F
:100300008E81882319F48CE591E053C01E838CE51F
:1003100091E054C0123099F411E01E8382E591E01F
:10032000BE016A5F7F4F0E94600B8E81882319F4A3
:1003300086E691E03EC01E8386E691E03FC0133022
:1003400099F411E01E838AE491E0BE016A5F7F4F59
:100350000E94600B8E81882319F48EE591E029C0FC
:100360001E838EE591E02AC0143099F411E01E83BB
:100370008EE491E0BE016A5F7F4F0E94600B8E8128
:10038000882319F481E691E014C01E8381E691E090
:1003900015C01530B9F411E01E8386E591E0BE0169
:1003A0006A5F7F4F0E94600B8E81882321F489E66B
:1003B00091E061E004C01E8389E691E060E00E9464
:1003C0009F0502C010922F0181E026960FB6F89487
:1003D000DEBF0FBECDBFCF91DF911F9108958091F9
:1003E0003401882331F481E08093ED01809334015E
:1003F00024C080913501882339F483E08093ED0196
:1004000081E08093350119C080913701882329F458
:1004100082E08093ED0181E00EC080913601882357
:1004200061F484E08093ED0181E080933401809356
:10043000350180933601809337018091ED01089555
:10044000EF92FF920F931F93F62E142FE22E0023AC
:1004500089F44D5F8DE791E025EA30E00E94EB09D9
:10046000EE2041F48DE791E06F2D412F28EA30E036
:100470000E94EB098091EB01801779F00A3018F4A3
:10048000412F4C5F02C0412F4D5F8DE791E06F2DF2
:10049000202F0E94040A0093EB01809138018E15F1
:1004A00069F089E08E1508F01F5F8DE791E06F2DF0
:1004B000412F2E2D0E94040AE092380181E01F9105
:1004C0000F91FF90EF9008958FE691E060E371E067
:1004D0000E94C90580913001882339F48AE591E0B2
:1004E00061E00E949F0581E008958AE591E060E067
:1004F0000E949F0580E008958EE591E00E943E08ED
:100500000E94770387E092E062E072E00E94C003FD
:1005100080910202882311F481E008958EE591E034
:100520000E9439080E94840310920202109207026E
:100530001092310180E008950E946402882381F4C2
:100540000E947C02882361F48AE591E061E00E94C8
:100550009F058AE591E060E00E949F0580E0089594
:1005600081E008950E94640280933A0180913201F3
:100570008130F1F48EE591E00E943E080E947703FD
:1005800084E092E065E072E00E94C0038091050281
:10059000882371F08EE591E00E9439080E9484035F
:1005A00010920502109204021092320180E001C004
:1005B00081E0809339018AE591E061E00E949F0526
:1005C0008AE591E060E00E949F051092EC01809125
:1005D0003A01882311F081E0089580913901811159
:1005E00081E0089583E791E06BE371E00E94600B86
:1005F00080913B01882309F04DC08091EA01813050
:1006000081F0813030F08230E1F0833009F042C077
:1006100010C00E949C02809334018823D9F581E0A8
:1006200037C00E94B20280933501882399F583E098
:100630002FC00E949C0280933701882359F582E0E5
:1006400027C084E691E061E00E949F0586E691E084
:100650000E943E080E94770386E092E063E072E029
:100660000E94C00380910302882311F481E00BC033
:1006700086E691E00E9439080E94840310920302EA
:100680001092060280E080933601882319F484E0FA
:100690008093EA0181E008958FB780688FBF80E87A
:1006A0008FBD88E08EBD84EF8DBD83E28ABD89B7A2
:1006B000806189BF81E0089581E0089581E0089517
:1006C0008091F301811181E008958FB780688FBF19
:1006D00083B7816083BF83B78D7F83BF83B7846017
:1006E00083BF89B7816089BF86E082BF089583B7E1
:1006F000816083BF83B78D7F83BF83B7846083BFEF
:1007000081E08093F301089583B78E7F83BF83B721
:100710008D7F83BF83B78B7F83BF1092F3011092CD
:10072000F0011092F1011092F20181E0089510920F
:10073000F0011092F1011092F2010895FC018091F4
:10074000F0018E3170F08091F1018F5F8093F101A3
:1007500080831092F0018091F1018C3310F010929F
:10076000F1010895FC019091F20190838091F101D3
:100770008B3328F09F5F9093F2011092F10108955E
:100780000F931F93CF93DF938C01EB0181EF91E0E7
:100790000E949E039091F2018091F1018B3328F029
:1007A0009F5F9093F2011092F1019091F201988372
:1007B0008091F101F80180839C3310F01092F201D6
:1007C000DF91CF911F910F9108951F920F920FB655
:1007D0000F9211248F938091F0018F5F8093F0012D
:1007E00086E082BF88B7816088BF8F910F900FBE6F
:1007F0000F901F90189520E0892B09F421E0822F9B
:1008000008958FB780688FBF80E008958FB78068A4
:100810008FBF80E008951F920F920FB60F921124A0
:100820002F933F934F935F936F937F938F939F93F8
:10083000AF93BF93EF93FF93E091F401F091F50133
:1008400009958AB780648ABFFF91EF91BF91AF91FC
:100850009F918F917F916F915F914F913F912F91D8
:100860000F900FBE0F901F9018951F920F920FB60A
:100870000F9211242F933F934F935F936F937F9326
:100880008F939F93AF93BF93EF93FF93E091F60104
:10089000F091F70109958AB780688ABFFF91EF91BF
:1008A000BF91AF919F918F917F916F915F914F9188
:1008B0003F912F910F900FBE0F901F9018951F9290
:1008C0000F920FB60F9211242F933F934F935F9384
:1008D0006F937F938F939F93AF93BF93EF93FF9308
:1008E000E091F801F091F90109958AB780628ABF19
:1008F000FF91EF91BF91AF919F918F917F916F91F8
:100900005F914F913F912F910F900FBE0F901F90CD
:1009100018950F931F93DF93CF9300D000D000D092
:10092000CDB7DEB78C01009711F481E0B7C0FC01B0
:100930002281213049F0213018F0223069F408C0BA
:100940008BB780648BBF10C08BB780688BBF29C00A
:100950008BB780628BBF43C0213019F1213020F06A
:10096000223009F049C03BC0F8018381813051F049
:10097000813028F0823061F08330F1F50CC085B70A
:100980008E7F02C085B7816085BF85B7826025C034
:1009900085B7816002C085B78E7F85BF85B78D7FA3
:1009A0001CC0F8018381813051F0813028F0823001
:1009B00061F0833009F50CC085B78B7F02C085B725
:1009C000846085BF85B7886008C085B7846002C031
:1009D00085B78B7F85BF85B7877F85BF0DC0F80141
:1009E0008381882319F0813039F403C084B78F7B69
:1009F00002C084B7806484BF8FB780688FBF1A82BB
:100A0000198290E399838A81887F8A608A831C8215
:100A10001B829B838C81887F8B608C831E821D82CE
:100A200086E38D838E81887F8B608E83213041F0B9
:100A3000213018F0223059F406C0CE01019605C0CD
:100A4000CE01039602C0CE0105960E94FC05F80176
:100A50008281813079F0813018F08230F1F414C055
:100A6000F801808191810097C1F09093F501809306
:100A7000F40113C0F80180819181009771F0909387
:100A8000F7018093F60109C0F801808191810097F8
:100A900021F09093F9018093F80180E026960FB63B
:100AA000F894DEBF0FBECDBFCF91DF911F910F91A4
:100AB0000895DC01009721F1662319F0613001F5FA
:100AC0000FC0EC91F0E0318111962C91277081E0FC
:100AD00090E002C0880F991F2A95E2F7382B0FC0CB
:100AE000EC91F0E0318111962C91277081E090E03B
:100AF00002C0880F991F2A95E2F780953823318329
:100B000081E00895CF93DF93DC01EB01009799F02A
:100B10006115710581F0EC91F0E0818190E0119612
:100B20002C91277002C0959587952A95E2F78170E0
:100B3000888380E001C081E0DF91CF910895DC01DE
:100B4000009729F1662389F0613009F5EC91F0E016
:100B5000328111962C91277081E090E002C0880FBD
:100B6000991F2A95E2F7382B0FC0EC91F0E0328103
:100B700011962C91277081E090E002C0880F991F98
:100B80002A95E2F780953823328380E0089581E04A
:100B90000895CF93DF93DC01EB01009799F0611585
:100BA000710581F0EC91F0E0808190E011962C913C
:100BB000277002C0959587952A95E2F78170888302
:100BC00080E001C081E0DF91CF910895DC010097C2
:100BD00011F481E00895EC91F0E0328111962C91AE
:100BE000277081E090E002C0880F991F2A95E2F7F4
:100BF0003827328380E00895CF93DF93EC0100978C
:100C000011F481E00DC06981669566956695617005
:100C10000E945905698162956170CE010E949F050D
:100C2000DF91CF910895662321F0613041F081E09A
:100C30000895E82FF0E08FEF818380E00895E82F9A
:100C4000F0E0118280E0089580E00895893341F05A
:100C5000863331F0833321F0803311F081E0089541
:100C6000E82FF0E0628380E0089580E0089580E05E
:100C70000895DC01EC91F0E0828190E011962C91D6
:100C8000277002C0959587952A95E2F7817008959F
:100C9000009711F481E008950E94E60580E0089530
:100CA000EF92FF921F93CF93DF93EC01009711F423
:100CB00081E00FC010E084EDE82E80E3F82ECE0135
:100CC0000E94E605C7010197F1F71F5F1431B9F7DC
:100CD00080E0DF91CF911F91FF90EF900895DF9317
:100CE000CF9300D0CDB7DEB7FC0120819181977002
:100CF000EF2B11F481E00CC01A8219828A81887F5F
:100D0000892B8A832983CE0101960E94E60580E023
:100D10000F900F90CF91DF910895DF93CF9300D084
:100D2000CDB7DEB7FC01208191819770EF2B11F4D4
:100D300081E00DC01A8219828A81887F892B8A837B
:100D40002983CE01019660E00E949F0580E00F900C
:100D50000F90CF91DF910895DF93CF9300D0CDB75F
:100D6000DEB7FC01208191819770EF2B11F481E0B7
:100D70000EC01A8219828A818061887F892B8A83BA
:100D80002983CE01019661E00E949F0580E00F90CB
:100D90000F90CF91DF910895DF93CF9300D0CDB71F
:100DA000DEB7FC01009711F481E011C02181808140
:100DB00089838A81807E922F990F90712770822B70
:100DC000892B8A83CE0101960E94FC0580E00F905A
:100DD0000F90CF91DF9108952F923F924F925F92A3
:100DE0006F927F928F929F92AF92BF92CF92DF923B
:100DF000EF92FF920F931F93DF93CF930F92CDB794
:100E0000DEB76C011B01009709F461C01982AA24A6
:100E1000BB2462E0462E512C480E591E54E0652E2C
:100E2000712C680E791E46E0842E912C880E991E36
:100E300028C0C7010496880F991F8C0D9D1DBE0107
:100E40006F5F7F4F0E94C9058981813041F484EC36
:100E500099E00197F1F7F8018081F101808308940E
:100E6000E11CF11C0F5F1F4FF4E0EF16F10409F7CE
:100E70000894A11CB11C84E0A816B10411F480E010
:100E800027C0C60160E00E949F05C20160E00E9489
:100E90009F05C30160E00E949F05C40160E00E94BD
:100EA0009F05C501880F991F8C0D9D1D61E00E9453
:100EB0009F0584EC99E00197F1F78501000F111F60
:100EC000000F111F07571E4FEE24FF24B2CF81E001
:100ED0000F90CF91DF911F910F91FF90EF90DF90D6
:100EE000CF90BF90AF909F908F907F906F905F90CA
:100EF0004F903F902F900895CF93DF93EC01009790
:100F000011F481E030C08981877E8983CE010E94FF
:100F1000FC058B81877E8B83CE0102960E94FC05A7
:100F20008D81877E8D83CE0104960E94FC058F8182
:100F3000877E8F83CE0106960E94FC05CE0108961F
:100F400061E00E945905CE010A9661E00E945905B0
:100F5000CE010C9661E00E945905CE010E9661E02B
:100F60000E94590580E0DF91CF9108950F931F9360
:100F70008BEF91E06AEF71E00E94C0030DE711E092
:100F8000C80161E043E02AE30E945E0AC80161E013
:100F900044E02091FB010E94040AC80161E041E0A5
:100FA0002091FA010E94040A1F910F9108958AE589
:100FB00091E00E94FC058CE591E00E94FC0584E62E
:100FC00091E00E94FC0589E691E00E94FC058BE619
:100FD00091E00E94FC058DE691E00E94FC058FE601
:100FE00091E00E94FC0581E791E00E94FC058EE300
:100FF00091E00E94A50B82E491E00E94A50B86E49B
:1010000091E00E94A50B8AE491E00E94A50B8EE47A
:1010100091E00E94A50B82E591E00E94A50B86E578
:1010200091E00E94A50B83E791E00E94A50B87E762
:1010300091E00E94A50B8DE791E00E94FC0A0E94BE
:1010400065030E9484038EE591E00E94430881E6D7
:1010500091E00E94430886E691E00E94430881E007
:1010600008950E94390690E0813009F491E0892FBB
:10107000089560E00E949F0580E0089561E00E946D
:101080009F0580E0089560E00E94590580E0089582
:10109000EF92FF920F931F93CF93DF938C01F62E65
:1010A000009711F481E029C060E00E949F05C0E034
:1010B000D0E0EF2CFF24CE010296880F991FB701D4
:1010C0000C2E02C0759567950A94E2F76170800F47
:1010D000911F0E949F052196C830D10561F70E5FD0
:1010E0001F4FC80161E00E949F0582EE94E00197C6
:1010F000F1F7C80160E00E949F05DF91CF911F9139
:101100000F91FF90EF900895623069F0633018F40A
:10111000613029F406C0633041F0643059F080E05A
:101120000895415803C0415401C04D56642F0E9498
:10113000480808954D52642F0E9448080895EF9280
:10114000FF920F931F93CF93DF938C01F62E00979E
:1011500011F481E029C061E00E949F05C0E0D0E069
:10116000EF2CFF24CE010296880F991FB7010C2E99
:1011700002C0759567950A94E2F76170800F911F20
:101180000E949F052196C830D10561F70E5F1F4F61
:10119000C80161E00E949F0582EE94E00197F1F79B
:1011A000C80160E00E949F05DF91CF911F910F91D0
:1011B000FF90EF9008950F931F93CF93DF938C01CF
:1011C000EB01009711F481E009C080E004C0219692
:1011D000C8010E949F0868816623C9F7DF91CF91FB
:1011E0001F910F9108950F931F93CF93DF93EC01FD
:1011F0008901009711F481E006C00E948408CE01A5
:10120000B8010E94DB08DF91CF911F910F910895E3
:101210001F93CF93DF93EC01122F009711F481E01D
:1012200006C00E948408CE01612F0E949F08DF91B2
:10123000CF911F910895BF92CF92DF92EF92FF92CC
:101240000F931F93CF93DF937C01162FB42E690168
:10125000009711F481E01EC0602F70E0685F7F4F3F
:1012600043E0660F771F4A95E1F70E944808C0E007
:10127000D0E0F601EC0FFD1FC70160810E949F08BE
:101280002196C830D105A9F7C701612F4B2D202F1A
:101290000E940809DF91CF911F910F91FF90EF906D
:1012A000DF90CF90BF900895EF92FF921F937C0143
:1012B000162F617004960E949F05612F66956170DC
:1012C000C70106960E949F0516951695612F6170BD
:1012D000C70108960E949F0516951170C7010A96CE
:1012E000612F0E949F051F91FF90EF9008950F932B
:1012F0001F938C010E5F1F4FC80161E00E949F0584
:1013000082EE94E00197F1F7C80160E00E949F052A
:101310001F910F9108951F93CF93DF93EC01162F28
:10132000009711F481E013C060E00E949F05612FD7
:1013300062956F70CE010E945409CE010E94770918
:10134000CE01612F0E945409CE010E947709DF91DE
:10135000CF911F91089561E00E948B0980E008956C
:10136000623069F0633018F4613029F406C06330EC
:1013700041F0643059F080E00895415803C0415471
:1013800001C04D56642F0E948B0908954D52642F61
:101390000E948B0908951F93CF93DF93EC01162FC2
:1013A000009711F481E013C061E00E949F05612F56
:1013B00062956F70CE010E945409CE010E94770998
:1013C000CE01612F0E945409CE010E947709DF915E
:1013D000CF911F9108950F931F93CF93DF938C01AB
:1013E000E901009711F481E00AC00E94B00904C02D
:1013F0002196C8010E94CB0968816623C9F7DF9155
:10140000CF911F910F910895CF92DF92EF92FF92AB
:101410000F931F93DF93CF9300D000D0CDB7DEB7EB
:101420007C01D62EC42E00D000D000D0EDB7FEB780
:1014300031968E010F5F1F4FADB7BEB712961C934A
:101440000E9311978CEA90E0938382832483158214
:101450000E945B0D8DB79EB706960FB6F8949EBF9F
:101460000FBE8DBFC7016D2D4C2D98010E94EB0959
:1014700081E00F900F900F900F90CF91DF911F910F
:101480000F91FF90EF90DF90CF9008950F931F93EF
:10149000CF93DF938C01EB01009711F481E009C039
:1014A00080E004C02196C8010E94CB0968816623B0
:1014B000C9F7DF91CF911F910F9108951F93CF939B
:1014C000DF93EC01122F009711F481E006C00E9417
:1014D000B009CE01612F0E94CB09DF91CF911F91FE
:1014E0000895BF92CF92DF92EF92FF920F931F93D6
:1014F000CF93DF937C01162FB42E6901009711F46E
:1015000081E01EC0602F70E0685F7F4F53E0660F80
:10151000771F5A95E1F70E948B09C0E0D0E0F601F1
:10152000EC0FFD1FC70160810E94CB092196C830D6
:10153000D105A9F7C701612F4B2D202F0E945E0A0C
:10154000DF91CF911F910F91FF90EF90DF90CF909F
:10155000BF9008950F931F93CF93DF938C01009753
:1015600011F481E044C00E94FC05C80102960E946B
:10157000FC05C0E0D0E02296CE01880F991F800FB5
:10158000911F0E94FC052197C830D105A1F788E87A
:1015900093E10197F1F7C80168E30E94480882EEE1
:1015A00094E00197F1F7C80168E30E9448088CE7CE
:1015B00092E90197F1F7C80168E30E944808C80161
:1015C00061E00E944808C80162E00E944808C80122
:1015D00066E00E944808C8016CE00E944808C80103
:1015E00068E30E944808C80160E80E944808DF914B
:1015F000CF911F910F9108950F931F93CF93DF9376
:10160000EC01009711F481E056C060E00E9459059A
:10161000CE01029660E00E945905CE01049660E07A
:101620000E945905CE01069660E00E945905CE0140
:10163000089660E00E945905CE010A9660E00E947B
:10164000590588E893E10197F1F7CE0168E30E941C
:101650008B0982EE94E00197F1F7CE0168E30E94D6
:101660008B090CE712E9C8010197F1F7CE0168E395
:101670000E948B09CE0161E00E948B09CE0162E0DD
:101680000E948B09CE0166E00E948B09CE016CE0BE
:101690000E948B09CE0168E20E948B09CE0160E8AE
:1016A0000E948B09F8013197F1F7F8013197F1F7B2
:1016B000F8013197F1F7DF91CF911F910F910895C4
:1016C000EF92FF920F931F93DF93CF9300D00F926F
:1016D000CDB7DEB78C017B01FC0120819181977031
:1016E0000115110539F16115710521F11B821A826D
:1016F0008B81887F892B8B832A831982CE01029666
:10170000BE016F5F7F4F0E94C905F8018381882366
:1017100029F48981813051F081E005C0813041F4A4
:101720008981813019F4F701808302C0F7011082AA
:1017300080E001C081E00F900F900F90CF91DF917A
:101740001F910F91FF90EF900895009711F481E0A1
:10175000089561E00E9459050895DF93CF93CDB7B6
:10176000DEB7C055D0400FB6F894DEBF0FBECDBF78
:10177000682FDE011196E9E9F1E080E501900D9214
:101780008150E1F724E1629F900111242C0F3D1F4D
:10179000235130408DE791E041E00E94EB09C05BAE
:1017A000DF4F0FB6F894DEBF0FBECDBFCF91DF91F4
:1017B0000895DF93CF93CDB7DEB7E8970FB6F894CF
:1017C000DEBF0FBECDBFDE019496EFEAF0E085E10B
:1017D00001900D928150E1F7DE011196E4ECF0E00A
:1017E00080E101900D928150E1F7DE015196E4ED28
:1017F000F0E083E101900D928150E1F78DE791E0F7
:1018000061E041E09E012C5D3F4F0E94EB098DE7B6
:1018100091E063E041E09E012F5F3F4F0E94EB09A2
:101820008DE791E064E041E09E012F5E3F4F0E9412
:10183000EB09E8960FB6F894DEBF0FBECDBFCF918F
:10184000DF9108950F93DF93CF93CDB7DEB7C054E8
:10185000D0400FB6F894DEBF0FBECDBF80912E01F1
:10186000882309F005C1DE019C96E7EEF0E085E1F2
:1018700001900D928150E1F7DE015E96ECEFF0E011
:101880008EE001900D928150E1F78091FC01882358
:10189000F1F482E00E94AD0B83E00E94AD0B84E086
:1018A0000E94AD0B8DE791E062E041E09E01245D76
:1018B0003F4F0E94EB098DE791E063E041E09E011C
:1018C000225E3F4F0E94EB0985E08093FC018091EE
:1018D000EA018B3909F4CCC0823009F482C083302C
:1018E00030F4882359F0813009F0C2C028C0833019
:1018F00009F44FC0843009F0BBC09BC08091FD014A
:10190000882309F065C0DE011696EAE0F1E086E082
:1019100001900D928150E1F783E00E94AD0B84E0CD
:101920000E94AD0B8DE791E063E04FE09E012A5FDE
:101930003F4F0E94EB0982E08093FD0149C08091F6
:10194000FE018823D9F4DE011196E0E1F1E085E0A3
:1019500001900D928150E1F783E00E94AD0B84E08D
:101960000E94AD0B8DE791E063E04FE09E012F5F99
:101970003F4F0E94EB0989E08093FE018DE791E0E3
:1019800064E04FE020910502009104020E942002D1
:101990006FC08091FF018823D9F4DE011C96E5E138
:1019A000F1E087E001900D928150E1F783E00E9421
:1019B000AD0B84E00E94AD0B8DE791E063E04FE05A
:1019C0009E01245F3F4F0E94EB0982E48093FF0158
:1019D0008DE791E064E04FE0209102020091070260
:1019E000D5CF809100028823D9F4DE011696ECE170
:1019F000F1E086E001900D928150E1F783E00E94D2
:101A0000AD0B84E00E94AD0B8DE791E063E04FE009
:101A10009E012A5F3F4F0E94EB0986E180930002FE
:101A20008DE791E064E04FE020910302009106020F
:101A3000ADCF809101028823D9F4DE015396E2E212
:101A4000F1E08BE001900D928150E1F783E00E947C
:101A5000AD0B84E00E94AD0B8DE791E063E041E0C7
:101A60009E012D5E3F4F0E94EB0988E580930102A5
:101A7000C05CDF4F0FB6F894DEBF0FBECDBFCF9175
:101A8000DF910F9108950E944B0080912E018823D1
:101A900019F0813031F403C00E94F20208950E94CF
:101AA000ED0008950E94D7070E94D90B0E94430DB4
:101AB0000E94220CFBCFAEE0B0E0E1E6FDE00C942A
:101AC0000A100D891E8986E08C831A8309838FEFA3
:101AD0009FE79E838D839E01275E3F4FCE01019637
:101AE0006F89788DA9010E947F0D2F813885020FA3
:101AF000131FF80110822E96E4E00C942610ABE040
:101B0000B0E0E5E8FDE00C94FC0F3C012B015A012C
:101B1000FC0117821682838181FD03C06FEF7FEF86
:101B2000C6C19AE0892E1E010894211C311CF301C4
:101B30002381F20123FD859123FF81912F018823C9
:101B400009F4B2C1853239F423FD859123FF8191D7
:101B50002F01853229F490E0B3010E94720FE7CF84
:101B6000982FFF24EE249924FFE1FF15D0F09B323B
:101B700069F09C3228F4903259F0933291F40EC0FF
:101B80009D3249F0903369F441E024C052E0F52AD7
:101B900084E0F82A28C098E0F92A25C0E0E1FE2A6E
:101BA00022C0F7FC29C0892F80538A3070F4F6FEDA
:101BB00005C0989C902C1124980E15C0E89CE02C30
:101BC0001124E80EF0E2FF2A0EC09E3229F4F6FC42
:101BD0006BC140E4F42A07C09C3619F450E8F52A9A
:101BE00002C0983649F4F20123FD959123FF9191AB
:101BF0002F01992309F0B8CF892F8554833018F02D
:101C00008052833038F444E050E0A40EB51E5FE308
:101C100059830FC0933631F0933779F0933509F03B
:101C200056C020C0F5018081898342E050E0A40EB7
:101C3000B51E610101E010E012C0F501C080D18045
:101C4000F6FC03C06FEF7FEF02C0692D70E042E049
:101C500050E0A40EB51EC6010E94670F8C015FE71D
:101C6000F52214C0F501C080D180F6FC03C06FEFEF
:101C70007FEF02C0692D70E042E050E0A40EB51E77
:101C8000C6010E945C0F8C0150E8F52AF3FE07C0E4
:101C90001AC080E290E0B3010E94720FEA948E2D88
:101CA00090E008171907A8F30EC0F601F7FC85911C
:101CB000F7FE81916F0190E0B3010E94720FE11075
:101CC000EA94015010400115110579F7EAC09436E5
:101CD00011F0993669F5F7FE08C0F50120813181D0
:101CE0004281538184E090E00AC0F50180819181B6
:101CF0009C01442737FD4095542F82E090E0A80EC8
:101D0000B91E9FE6F92257FF09C0509540953095BE
:101D100021953F4F4F4F5F4FE0E8FE2ACA01B901BE
:101D2000A1012AE030E00E949E0FD82ED21840C0B8
:101D3000953729F41F2D1F7E2AE030E01DC01F2D8E
:101D4000197F9F3661F0903720F4983509F0ACC0C8
:101D50000FC0903739F0983709F0A6C004C028E0CA
:101D600030E00AC0106114FD146020E130E004C0CE
:101D700014FD166020E132E017FF08C0F501608114
:101D800071818281938144E050E008C0F501808137
:101D90009181BC0180E090E042E050E0A40EB51ECD
:101DA000A1010E949E0FD82ED2188FE7F82EF122A3
:101DB000F6FE0BC05EEFF522D91438F4F4FE07C02E
:101DC000F2FC05C08FEEF82202C01D2D01C0192DB6
:101DD000F4FE0DC0FE01ED0DF11D8081803319F47C
:101DE00099EEF92208C01F5FF2FE05C003C08F2DD7
:101DF000867809F01F5F0F2DF3FC14C0F0FE0FC0B2
:101E00001E1510F09D2C0BC09D2C9E0C911A1E2DA2
:101E100006C080E290E0B3010E94720F1F5F1E15A2
:101E2000C0F304C01E1510F4E11A01C0EE2404FF33
:101E30000FC080E390E0B3010E94720F02FF1DC04B
:101E400001FD03C088E790E00EC088E590E00BC07C
:101E5000802F867891F001FF02C08BE201C080E202
:101E6000F7FC8DE290E0B3010E94720F06C080E3A0
:101E700090E0B3010E94720F9A94D914C0F3DA94DF
:101E8000F101ED0DF11D808190E0B3010E94720F10
:101E9000DD20A9F706C080E290E0B3010E94720F36
:101EA000EA94EE20C1F743CEF30166817781CB013E
:101EB0002B96E2E10C941810FC01059061507040E3
:101EC0000110D8F7809590958E0F9F1F0895FC0103
:101ED0006150704001900110D8F7809590958E0F59
:101EE0009F1F08950F931F93CF93DF938C01EB01F6
:101EF0008B8181FF1BC082FF0DC02E813F818C81B1
:101F00009D812817390764F4E881F9810193F983E9
:101F1000E88306C0E885F985802F0995892B31F47F
:101F20008E819F8101969F838E8302C00FEF1FEFEA
:101F3000C801DF91CF911F910F910895FA01AA274F
:101F4000283051F1203181F1E8946F936E7F6E5FFC
:101F50007F4F8F4F9F4FAF4FB1E03ED0B4E03CD0AA
:101F6000670F781F891F9A1FA11D680F791F8A1F8D
:101F7000911DA11D6A0F711D811D911DA11D20D0F4
:101F800009F468943F912AE0269F11243019305DAE
:101F90003193DEF6CF010895462F4770405D41939F
:101FA000B3E00FD0C9F7F6CF462F4F70405D4A33EC
:101FB00018F0495D31FD4052419302D0A9F7EACFB4
:101FC000B4E0A6959795879577956795BA95C9F7E3
:101FD00000976105710508959B01AC010A2E0694D6
:101FE0005795479537952795BA95C9F7620F731F8F
:101FF000841F951FA01D08952F923F924F925F92CC
:102000006F927F928F929F92AF92BF92CF92DF9208
:10201000EF92FF920F931F93CF93DF93CDB7DEB76D
:10202000CA1BDB0B0FB6F894DEBF0FBECDBF099401
:102030002A88398848885F846E847D848C849B8458
:10204000AA84B984C884DF80EE80FD800C811B8166
:10205000AA81B981CE0FD11D0FB6F894DEBF0FBE95
:0A206000CDBFED010895F894FFCF05
:10206A002020202020416C617173612020202020D3
:10207A002000776174657200686561746572006436
:10208A007261696E007269676874006C65667400D3
:10209A00646F6F7200416C617173616120436F6D8F
:1020AA0070616E790030300030303A0025640020CB
:1020BA002057656C636F6D6520546F20416C6171A8
:1020CA00736120002020202043686F6F7365204DC4
:1020DA006F6465004175746F202020202020202025
:1020EA004D616E75616C0050726573732041757431
:1020FA006F2053746172742042746E002020202075
:10210A00202020546F2052756E0052696E7365004C
:10211A00576173680052696E73653200447261696F
:10212A006E002020202020456E6421210006030134
:10213A0001010101010101017801010139033301A2
:10214A00010133030101330401013305010133069F
:10215A000101330701013001010136043605360653
:10216A0000360700300730040036033006300533E6
:10217A0008300836000101330201013600390139FD
:10218A000239033904390539063738392F343536D7
:10219A002A3132332D23303D2B20202020202020AD
:1021AA002020202020202009202020202020200953
:1021BA002020202020202020202020202020202015
:1021CA002020202020202020202020202020202005
:1021DA00092020202020202020202020202020200C
:0A21EA0020092020202020202000E2
:00000001FF
