:100000000C942A000C94FB030C9425040C944F04CC
:100010000C9447000C9447000C9447000C94470044
:100020000C9447000C9447000C9447000C94D503A3
:100030000C9447000C9447000C9447000C94470024
:100040000C9447000C9447000C9447000C94470014
:100050000C94470011241FBECFE5D4E0DEBFCDBF16
:1000600012E0A0E6B0E0EAE2F2E202C005900D92F2
:10007000A232B107D9F712E0A2E2B2E001C01D92AC
:10008000A234B107E1F70E94320E0C9413110C94C4
:10009000000081E00895DF93CF9300D0CDB7DEB7A5
:1000A0008091AC01823029F581E08A83898385EFD4
:1000B00091E0BE016F5F7F4F0E94500B8CEB91E08F
:1000C000BE016E5F7F4F0E94500B9981992331F4DE
:1000D0008A81813019F41092AC010BC08A81882387
:1000E00029F4913019F49093AC0103C082E080931D
:1000F000AC0181E00F900F90CF91DF910895809136
:10010000AD01882349F48BEE91E061E00E948F05F8
:1001100089EE91E061E008C08BEE91E060E00E9422
:100120008F0589EE91E060E00E948F0581E00895DF
:100130001F93DF93CF9300D000D000D0CDB7DEB7B0
:1001400011E019831A831B831C831D831E8380EC9B
:1001500091E0BE016F5F7F4F0E94500B84EC91E0F5
:10016000BE016E5F7F4F0E94500B88EC91E0BE0194
:100170006D5F7F4F0E94500B8CEC91E0BE016C5F75
:100180007F4F0E94500B80ED91E0BE016B5F7F4F6F
:100190000E94500B84ED91E0BE016A5F7F4F0E9488
:1001A000500B8981882321F41092AB011A8306C079
:1001B0008A81882341F41093AB0119831B831C832C
:1001C0001D831E8329C08B81882331F483E08093B3
:1001D000AB0119831A83F3CF8C81882339F484E02F
:1001E0008093AB0119831A831B83EACF8D81882307
:1001F00041F482E08093AB0119831A831B831C8333
:10020000E0CF8E81882341F485E08093AB01198390
:100210001A831B831C831D831091AB01133009F4D7
:100220004CC0143040F4113019F1BE016A5F7F4FA9
:10023000123098F50AC0153009F465C0153008F47D
:100240004FC0163009F080C072C081E08E8380EC10
:1002500091E00E94500B8E81882319F488ED91E083
:1002600060C0813009F070C08E8388ED91E011C0CC
:100270001E8384EC91E0BE016A5F7F4F0E94500BA9
:100280008E81882319F48AED91E04BC01E838AED9C
:1002900091E060E00E948F0557C011E01E8380ED61
:1002A00091E00E94500B8E81882319F484EE91E036
:1002B00038C01E8384EE91E0ECCF11E01E8388EC01
:1002C00091E0BE016A5F7F4F0E94500B8E818823B0
:1002D00019F48CED91E025C01E838CED91E0D9CF0F
:1002E00011E01E838CEC91E0BE016A5F7F4F0E949B
:1002F000500B8E81882319F48FED91E012C01E837C
:100300008FED91E0C6CF11E01E8384ED91E0BE0138
:100310006A5F7F4F0E94500B8E81882321F487EE05
:1003200091E061E0B7CF1E8387EE91E0B2CF0E94EB
:10033000460380E06AE00E94B403882329F482E047
:100340008093AC010E94D20381E026960FB6F89408
:10035000DEBF0FBECDBFCF91DF911F910895809179
:10036000B301882331F481E0809325028093B301A7
:1003700024C08091B401882339F483E0809325025E
:1003800081E08093B40119C08091B601882329F4DB
:1003900082E08093250281E00EC08091B501882320
:1003A00061F484E08093250281E08093B30180931F
:1003B000B4018093B5018093B60180912502089520
:1003C000EF92FF920F931F93F62E142FE22E00232D
:1003D00089F44D5F8BEF91E020E630E00E94DB096D
:1003E000EE2041F48BEF91E06F2D412F23E630E0BA
:1003F0000E94DB0980912302801779F00A3018F4FB
:10040000412F4C5F02C0412F4D5F8BEF91E06F2D6C
:10041000202F0E94F409009323028091B7018E15CA
:1004200069F089E08E1508F01F5F8BEF91E06F2D6A
:10043000412F2E2D0E94F409E092B70181E01F9117
:100440000F91FF90EF9008958DEE91E06FEA71E0CB
:100450000E94B9058091AF01882339F488ED91E0BD
:1004600061E00E948F0581E0089588ED91E060E0F1
:100470000E948F0580E008958CED91E00E942E0887
:100480000E94460381E492E06CE372E00E948F03D5
:1004900080913C02882311F481E008958CED91E075
:1004A0000E9429080E94530310923C0210924102BC
:1004B0001092B00180E008950E942402882381F404
:1004C0000E943C02882361F488ED91E061E00E9483
:1004D0008F0588ED91E060E00E948F0580E008952F
:1004E00081E008950E9424028093B9018091B101B6
:1004F0008130F1F48CED91E00E942E080E944603B9
:100500008EE392E06FE372E00E948F0380913F02DE
:10051000882371F08CED91E00E9429080E9453031A
:1005200010923F0210923E021092B10180E001C091
:1005300081E08093B80188ED91E061E00E948F0531
:1005400088ED91E060E00E948F0510922402809176
:10055000B901882311F081E008958091B8018111DB
:1005600081E008958091AE01813031F481EF91E016
:100570006EEA71E00E94500B8091AE01882309F071
:1005800058C080912202823049F1833030F48823B0
:1005900051F0813009F04DC00FC08330B9F0843084
:1005A00009F047C043C00E945C028093B3018823D6
:1005B00009F03FC081E007C00E9472028093B4013D
:1005C0008823B9F583E08093220233C00E945C0245
:1005D0008093B601882369F582E0F5CF82EE91E041
:1005E00061E00E948F0584EE91E00E942E080E9437
:1005F000460380E492E06DE372E00E948F038091F5
:100600003D02882311F481E00BC084EE91E00E944A
:1006100029080E94530310923D021092400280E08C
:100620008093B501882329F484E0CDCF82E08093C4
:10063000AC0181E008958FB780688FBF80E88FBDDF
:1006400088E08EBD84EF8DBD83E28ABD89B780616D
:1006500089BF81E0089581E0089581E00895809147
:100660002D02811181E008958FB780688FBF83B715
:10067000816083BF83B78D7F83BF83B7846083BF6F
:1006800089B7816089BF86E082BF089583B78160A2
:1006900083BF83B78D7F83BF83B7846083BF81E0CF
:1006A00080932D02089583B78E7F83BF83B78D7F9C
:1006B00083BF83B78B7F83BF10922D0210922802D5
:1006C00010922B0210922C0281E0089510922802C1
:1006D00010922B0210922C020895FC0180912802A6
:1006E0008E3170F080912B028F5F80932B0280837C
:1006F0001092280280912B028C3310F010922B0262
:100700000895FC0190912C02908380912B028B33F1
:1007100028F09F5F90932C0210922B0208950F9364
:100720001F93CF93DF938C01EB018BE292E00E9449
:100730006D0390912C0280912B028B3328F09F5FE8
:1007400090932C0210922B0290912C02988380910E
:100750002B02F80180839C3310F010922C02DF9161
:10076000CF911F910F9108950F931F93182F062F6C
:1007700089E292E06AE272E00E948F0380912A028D
:10078000181761F480912902081741F40E9453035D
:1007900010922A021092290280E001C081E01F918C
:1007A0000F9108950E94530308951F920F920FB660
:1007B0000F9211248F93809128028F5F80932802DB
:1007C00086E082BF88B7816088BF8F910F900FBE8F
:1007D0000F901F90189520E0892B09F421E0822FBB
:1007E00008958FB780688FBF80E008958FB78068C5
:1007F0008FBF80E008951F920F920FB60F921124C1
:100800002F933F934F935F936F937F938F939F9318
:10081000AF93BF93EF93FF93E0912E02F0912F02DD
:1008200009958AB780648ABFFF91EF91BF91AF911C
:100830009F918F917F916F915F914F913F912F91F8
:100840000F900FBE0F901F9018951F920F920FB62A
:100850000F9211242F933F934F935F936F937F9346
:100860008F939F93AF93BF93EF93FF93E0913002E9
:10087000F091310209958AB780688ABFFF91EF91A4
:10088000BF91AF919F918F917F916F915F914F91A8
:100890003F912F910F900FBE0F901F9018951F92B0
:1008A0000F920FB60F9211242F933F934F935F93A4
:1008B0006F937F938F939F93AF93BF93EF93FF9328
:1008C000E0913202F091330209958AB780628ABFC3
:1008D000FF91EF91BF91AF919F918F917F916F9118
:1008E0005F914F913F912F910F900FBE0F901F90EE
:1008F00018950F931F93DF93CF9300D000D000D0B3
:10090000CDB7DEB78C01009711F481E0B7C0FC01D0
:100910002281213049F0213018F0223069F408C0DA
:100920008BB780648BBF10C08BB780688BBF29C02A
:100930008BB780628BBF43C0213019F1213020F08A
:10094000223009F049C03BC0F8018381813051F069
:10095000813028F0823061F08330F1F50CC085B72A
:100960008E7F02C085B7816085BF85B7826025C054
:1009700085B7816002C085B78E7F85BF85B78D7FC3
:100980001CC0F8018381813051F0813028F0823021
:1009900061F0833009F50CC085B78B7F02C085B745
:1009A000846085BF85B7886008C085B7846002C051
:1009B00085B78B7F85BF85B7877F85BF0DC0F80161
:1009C0008381882319F0813039F403C084B78F7B89
:1009D00002C084B7806484BF8FB780688FBF1A82DB
:1009E000198290E399838A81887F8A608A831C8236
:1009F0001B829B838C81887F8B608C831E821D82EF
:100A000086E38D838E81887F8B608E83213041F0D9
:100A1000213018F0223059F406C0CE01019605C0ED
:100A2000CE01039602C0CE0105960E94EC05F801A6
:100A30008281813079F0813018F08230F1F414C075
:100A4000F801808191810097C1F090932F028093EB
:100A50002E0213C0F80180819181009771F090936C
:100A600031028093300209C0F801808191810097A2
:100A700021F0909333028093320280E026960FB6E5
:100A8000F894DEBF0FBECDBFCF91DF911F910F91C4
:100A90000895DC01009721F1662319F0613001F51A
:100AA0000FC0EC91F0E0318111962C91277081E01C
:100AB00090E002C0880F991F2A95E2F7382B0FC0EB
:100AC000EC91F0E0318111962C91277081E090E05B
:100AD00002C0880F991F2A95E2F780953823318349
:100AE00081E00895CF93DF93DC01EB01009799F04B
:100AF0006115710581F0EC91F0E0818190E0119633
:100B00002C91277002C0959587952A95E2F7817000
:100B1000888380E001C081E0DF91CF910895DC01FE
:100B2000009729F1662389F0613009F5EC91F0E036
:100B3000328111962C91277081E090E002C0880FDD
:100B4000991F2A95E2F7382B0FC0EC91F0E0328123
:100B500011962C91277081E090E002C0880F991FB8
:100B60002A95E2F780953823328380E0089581E06A
:100B70000895CF93DF93DC01EB01009799F06115A5
:100B8000710581F0EC91F0E0808190E011962C915C
:100B9000277002C0959587952A95E2F78170888322
:100BA00080E001C081E0DF91CF910895DC010097E2
:100BB00011F481E00895EC91F0E0328111962C91CE
:100BC000277081E090E002C0880F991F2A95E2F714
:100BD0003827328380E00895CF93DF93EC010097AC
:100BE00011F481E00DC06981669566956695617026
:100BF0000E944905698162956170CE010E948F054E
:100C0000DF91CF910895662321F0613041F081E0BA
:100C10000895E82FF0E08FEF818380E00895E82FBA
:100C2000F0E0118280E0089580E00895893341F07A
:100C3000863331F0833321F0803311F081E0089561
:100C4000E82FF0E0628380E0089580E0089580E07E
:100C50000895DC01EC91F0E0828190E011962C91F6
:100C6000277002C0959587952A95E2F781700895BF
:100C7000009711F481E008950E94D60580E0089560
:100C8000EF92FF921F93CF93DF93EC01009711F443
:100C900081E00FC010E084EDE82E80E3F82ECE0155
:100CA0000E94D605C7010197F1F71F5F1431B9F70C
:100CB00080E0DF91CF911F91FF90EF900895DF9337
:100CC000CF9300D0CDB7DEB7FC0120819181977022
:100CD000EF2B11F481E00CC01A8219828A81887F7F
:100CE000892B8A832983CE0101960E94D60580E054
:100CF0000F900F90CF91DF910895DF93CF9300D0A5
:100D0000CDB7DEB7FC01208191819770EF2B11F4F4
:100D100081E00DC01A8219828A81887F892B8A839B
:100D20002983CE01019660E00E948F0580E00F903C
:100D30000F90CF91DF910895DF93CF9300D0CDB77F
:100D4000DEB7FC01208191819770EF2B11F481E0D7
:100D50000EC01A8219828A818061887F892B8A83DA
:100D60002983CE01019661E00E948F0580E00F90FB
:100D70000F90CF91DF910895DF93CF9300D0CDB73F
:100D8000DEB7FC01009711F481E011C02181808160
:100D900089838A81807E922F990F90712770822B90
:100DA000892B8A83CE0101960E94EC0580E00F908A
:100DB0000F90CF91DF9108952F923F924F925F92C3
:100DC0006F927F928F929F92AF92BF92CF92DF925B
:100DD000EF92FF920F931F93DF93CF930F92CDB7B4
:100DE000DEB76C011B01009709F461C01982AA24C7
:100DF000BB2462E0462E512C480E591E54E0652E4D
:100E0000712C680E791E46E0842E912C880E991E56
:100E100028C0C7010496880F991F8C0D9D1DBE0127
:100E20006F5F7F4F0E94B9058981813041F484EC66
:100E300099E00197F1F7F8018081F101808308942E
:100E4000E11CF11C0F5F1F4FF4E0EF16F10409F7EE
:100E50000894A11CB11C84E0A816B10411F480E030
:100E600027C0C60160E00E948F05C20160E00E94B9
:100E70008F05C30160E00E948F05C40160E00E94FD
:100E80008F05C501880F991F8C0D9D1D61E00E9483
:100E90008F0584EC99E00197F1F78501000F111F90
:100EA000000F111F075F1D4FEE24FF24B2CF81E01A
:100EB0000F90CF91DF911F910F91FF90EF90DF90F6
:100EC000CF90BF90AF909F908F907F906F905F90EA
:100ED0004F903F902F900895CF93DF93EC010097B0
:100EE00011F481E030C08981877E8983CE010E9420
:100EF000EC058B81877E8B83CE0102960E94EC05E8
:100F00008D81877E8D83CE0104960E94EC058F81B2
:100F1000877E8F83CE0106960E94EC05CE0108964F
:100F200061E00E944905CE010A9661E00E944905F0
:100F3000CE010C9661E00E944905CE010E9661E05B
:100F40000E94490580E0DF91CF9108950F931F9390
:100F500085E392E064E372E00E948F030BEF11E0FF
:100F6000C80161E043E02AE30E944E0AC80161E043
:100F700044E0209135020E94F409C80161E041E09B
:100F8000209134020E94F4091F910F91089588ED79
:100F900091E00E94EC058AED91E00E94EC0582EE62
:100FA00091E00E94EC0587EE91E00E94EC0589EE4D
:100FB00091E00E94EC058BEE91E00E94EC058DEE35
:100FC00091E00E94EC058FEE91E00E94EC058CEB25
:100FD00091E00E94950B80EC91E00E94950B84ECCF
:100FE00091E00E94950B88EC91E00E94950B8CECAF
:100FF00091E00E94950B80ED91E00E94950B84EDAD
:1010000091E00E94950B81EF91E00E94950B85EF96
:1010100091E00E94950B8BEF91E00E94EC0A0E94F8
:1010200034030E9453038CED91E00E9433088FED4E
:1010300091E00E94330884EE91E00E94330881E041
:1010400008950E94290690E0813009F491E0892FEB
:10105000089560E00E948F0580E0089561E00E949D
:101060008F0580E0089560E00E94490580E00895C2
:10107000EF92FF920F931F93CF93DF938C01F62E85
:10108000009711F481E029C060E00E948F05C0E064
:10109000D0E0EF2CFF24CE010296880F991FB701F4
:1010A0000C2E02C0759567950A94E2F76170800F67
:1010B000911F0E948F052196C830D10561F70E5F00
:1010C0001F4FC80161E00E948F0582EE94E00197F6
:1010D000F1F7C80160E00E948F05DF91CF911F9169
:1010E0000F91FF90EF900895623069F0633018F42B
:1010F000613029F406C0633041F0643059F080E07B
:101100000895415803C0415401C04D56642F0E94B8
:10111000380808954D52642F0E9438080895EF92C0
:10112000FF920F931F93CF93DF938C01F62E0097BE
:1011300011F481E029C061E00E948F05C0E0D0E099
:10114000EF2CFF24CE010296880F991FB7010C2EB9
:1011500002C0759567950A94E2F76170800F911F40
:101160000E948F052196C830D10561F70E5F1F4F91
:10117000C80161E00E948F0582EE94E00197F1F7CB
:10118000C80160E00E948F05DF91CF911F910F9100
:10119000FF90EF9008950F931F93CF93DF938C01EF
:1011A000EB01009711F481E009C080E004C02196B2
:1011B000C8010E948F0868816623C9F7DF91CF912B
:1011C0001F910F9108950F931F93CF93DF93EC011D
:1011D0008901009711F481E006C00E947408CE01D5
:1011E000B8010E94CB08DF91CF911F910F91089514
:1011F0001F93CF93DF93EC01122F009711F481E03E
:1012000006C00E947408CE01612F0E948F08DF91F2
:10121000CF911F910895BF92CF92DF92EF92FF92EC
:101220000F931F93CF93DF937C01162FB42E690188
:10123000009711F481E01EC0602F70E0685F7F4F5F
:1012400043E0660F771F4A95E1F70E943808C0E037
:10125000D0E0F601EC0FFD1FC70160810E948F08EE
:101260002196C830D105A9F7C701612F4B2D202F3A
:101270000E94F808DF91CF911F910F91FF90EF909E
:10128000DF90CF90BF900895EF92FF921F937C0163
:10129000162F617004960E948F05612F669561700C
:1012A000C70106960E948F0516951695612F6170ED
:1012B000C70108960E948F0516951170C7010A96FE
:1012C000612F0E948F051F91FF90EF9008950F935B
:1012D0001F938C010E5F1F4FC80161E00E948F05B4
:1012E00082EE94E00197F1F7C80160E00E948F055B
:1012F0001F910F9108951F93CF93DF93EC01162F49
:10130000009711F481E013C060E00E948F05612F07
:1013100062956F70CE010E944409CE010E94670958
:10132000CE01612F0E944409CE010E946709DF911E
:10133000CF911F91089561E00E947B0980E008959C
:10134000623069F0633018F4613029F406C063300C
:1013500041F0643059F080E00895415803C0415491
:1013600001C04D56642F0E947B0908954D52642F91
:101370000E947B0908951F93CF93DF93EC01162FF2
:10138000009711F481E013C061E00E948F05612F86
:1013900062956F70CE010E944409CE010E946709D8
:1013A000CE01612F0E944409CE010E946709DF919E
:1013B000CF911F9108950F931F93CF93DF938C01CB
:1013C000E901009711F481E00AC00E94A00904C05D
:1013D0002196C8010E94BB0968816623C9F7DF9185
:1013E000CF911F910F910895CF92DF92EF92FF92CC
:1013F0000F931F93DF93CF9300D000D0CDB7DEB70C
:101400007C01D62EC42E00D000D000D0EDB7FEB7A0
:1014100031968E010F5F1F4FADB7BEB712961C936A
:101420000E93119787E690E093838283248315823D
:101430000E943B0E8DB79EB706960FB6F8949EBFDE
:101440000FBE8DBFC7016D2D4C2D98010E94DB0989
:1014500081E00F900F900F900F90CF91DF911F912F
:101460000F91FF90EF90DF90CF9008950F931F930F
:10147000CF93DF938C01EB01009711F481E009C059
:1014800080E004C02196C8010E94BB0968816623E0
:10149000C9F7DF91CF911F910F9108951F93CF93BB
:1014A000DF93EC01122F009711F481E006C00E9437
:1014B000A009CE01612F0E94BB09DF91CF911F913E
:1014C0000895BF92CF92DF92EF92FF920F931F93F6
:1014D000CF93DF937C01162FB42E6901009711F48E
:1014E00081E01EC0602F70E0685F7F4F53E0660FA1
:1014F000771F5A95E1F70E947B09C0E0D0E0F60122
:10150000EC0FFD1FC70160810E94BB092196C83006
:10151000D105A9F7C701612F4B2D202F0E944E0A3C
:10152000DF91CF911F910F91FF90EF90DF90CF90BF
:10153000BF9008950F931F93CF93DF938C01009773
:1015400011F481E044C00E94EC05C80102960E949B
:10155000EC05C0E0D0E02296CE01880F991F800FE5
:10156000911F0E94EC052197C830D105A1F788E8AA
:1015700093E10197F1F7C80168E30E94380882EE11
:1015800094E00197F1F7C80168E30E9438088CE7FE
:1015900092E90197F1F7C80168E30E943808C80191
:1015A00061E00E943808C80162E00E943808C80162
:1015B00066E00E943808C8016CE00E943808C80143
:1015C00068E30E943808C80160E80E943808DF918B
:1015D000CF911F910F9108950F931F93CF93DF9396
:1015E000EC01009711F481E056C060E00E944905CB
:1015F000CE01029660E00E944905CE01049660E0AB
:101600000E944905CE01069660E00E944905CE0180
:10161000089660E00E944905CE010A9660E00E94AB
:10162000490588E893E10197F1F7CE0168E30E944C
:101630007B0982EE94E00197F1F7CE0168E30E9406
:101640007B090CE712E9C8010197F1F7CE0168E3C5
:101650000E947B09CE0161E00E947B09CE0162E01D
:101660000E947B09CE0166E00E947B09CE016CE0FE
:101670000E947B09CE0168E20E947B09CE0160E8EE
:101680000E947B09F8013197F1F7F8013197F1F7E2
:10169000F8013197F1F7DF91CF911F910F910895E4
:1016A000EF92FF920F931F93DF93CF9300D00F928F
:1016B000CDB7DEB78C017B01FC0120819181977051
:1016C0000115110539F16115710521F11B821A828D
:1016D0008B81887F892B8B832A831982CE01029686
:1016E000BE016F5F7F4F0E94B905F8018381882397
:1016F00029F48981813051F081E005C0813041F4C5
:101700008981813019F4F701808302C0F7011082CA
:1017100080E001C081E00F900F900F90CF91DF919A
:101720001F910F91FF90EF900895009711F481E0C1
:10173000089561E00E9449050895DF93CF93CDB7E6
:10174000DEB728970FB6F894DEBF0FBECDBF682F67
:10175000DE011196E9E1F2E088E001900D928150FE
:10176000E1F7E62FF0E03197EE0FFF1FEC0FFD1FC2
:10177000218132818BEF91E041E00E94DB092896C4
:101780000FB6F894DEBF0FBECDBFCF91DF910895A5
:10179000DF93CF93CDB7DEB7E9970FB6F894DEBFEE
:1017A0000FBECDBFDE019596EAE6F0E085E101903F
:1017B0000D928150E1F7DE011196EFE7F0E080E154
:1017C00001900D928150E1F7DE015196EFE8F0E0D3
:1017D00084E101900D928150E1F78BEF91E061E09F
:1017E00041E09E012B5D3F4F0E94DB098BEF91E0B2
:1017F00062E041E09E012F5F3F4F0E94DB098BEFCB
:1018000091E064E041E09E012F5E3F4F0E94DB09C2
:10181000E9960FB6F894DEBF0FBECDBFCF91DF9132
:1018200008950F93DF93CF93CDB7DEB7C458D04060
:101830000FB6F894DEBF0FBECDBF8091AC018823F8
:1018400021F0813009F0F0C111C1DE01A05ABF4F73
:10185000E3EAF0E081E101900D928150E1F7DE01D1
:10186000AF58BF4FE4EBF0E084E101900D9281505E
:10187000E1F7809136028823F1F482E00E949D0B0B
:1018800083E00E949D0B84E00E949D0B8BEF91E012
:1018900062E041E09E01205A3F4F0E94DB098BEF3E
:1018A00091E063E041E09E012F583F4F0E94DB0929
:1018B00085E0809336028091AE01882309F0B4C19F
:1018C00080912202823009F485C0833030F488236D
:1018D00059F0813009F0C5C02BC0833009F452C0E3
:1018E000843009F0BEC09EC080913702882309F081
:1018F00068C0DE011696E8ECF0E086E001900D92FB
:101900008150E1F782E00E949D0B83E00E949D0BD5
:1019100084E00E949D0B8BEF91E063E04FE09E011D
:101920002A5F3F4F0E94DB0981E08093370249C064
:10193000809138028823D9F4DE011196EEECF0E0B4
:1019400085E001900D928150E1F783E00E949D0BAC
:1019500084E00E949D0B8BEF91E063E04FE09E01DD
:101960002F5F3F4F0E94DB0989E0809338028BEFA5
:1019700091E064E04FE020913F0200913E020E941E
:10198000E0016FC0809139028823D9F4DE011C96F2
:10199000E3EDF0E087E001900D928150E1F783E004
:1019A0000E949D0B84E00E949D0B8BEF91E063E011
:1019B0004FE09E01245F3F4F0E94DB0982E4809349
:1019C00039028BEF91E064E04FE020913C020091FE
:1019D0004102D5CF80913A028823D9F4DE011696D0
:1019E000EAEDF0E086E001900D928150E1F783E0AE
:1019F0000E949D0B84E00E949D0B8BEF91E063E0C1
:101A00004FE09E012A5F3F4F0E94DB0986E18093F1
:101A10003A028BEF91E064E04FE020913D020091AB
:101A20004002ADCF80913B028823D9F4DE015D9660
:101A3000E0EEF0E08BE001900D928150E1F783E061
:101A40000E949D0B84E00E949D0B8BEF91E063E070
:101A500041E09E01235E3F4F0E94DB0988E58093B1
:101A60003B028091220280930702DEC0909108021F
:101A70008091AB01981709F4D7C0DE019896EBEE80
:101A8000F0E08CE001900D928150E1F7DE01AF585B
:101A9000BF4FE7EFF0E084E101900D928150E1F754
:101AA00082E00E949D0B83E00E949D0B84E00E94D7
:101AB0009D0B8BEF91E062E041E09E012F583F4F7C
:101AC0000E94DB098BEF91E063E041E09E01285D1D
:101AD0003F4F0E94DB098091AB01833009F44DC078
:101AE000843028F4813009F1823098F50AC08530BD
:101AF00009F46DC0853008F455C0863009F090C0F7
:101B00007AC0DE015D96EBE0F1E08BE001900D9292
:101B10008150E1F784E00E949D0B8BEF91E064E03F
:101B200041E09E01235E3F4F79C0DE011C96E6E155
:101B3000F1E087E001900D928150E1F784E00E948E
:101B40009D0B8BEF91E064E041E09E01245F3F4FED
:101B500065C0DE011696EAEDF0E086E001900D9298
:101B60008150E1F784E00E949D0B8BEF91E064E0EF
:101B700041E09E012A5F3F4F51C0DE01A05BBF4F95
:101B8000EDE1F1E080E101900D928150E1F784E018
:101B90000E949D0B8BEF91E064E041E09E01205B91
:101BA0003F4F3CC0DE01AF5BBF4FEDE2F1E08FE0A5
:101BB00001900D928150E1F784E00E949D0B8BEF24
:101BC00091E064E041E09E012F5B3F4F27C0DE01C2
:101BD0005396ECE3F1E08AE001900D928150E1F739
:101BE00084E00E949D0B8BEF91E064E041E09E0158
:101BF0002D5E3F4F13C0DE01D496E6E4F1E08DE0A8
:101C000001900D928150E1F784E00E949D0B8BEFD3
:101C100091E064E041E09E012C5C3F4F0E94DB09B3
:101C20008091AB0180930802CC57DF4F0FB6F89438
:101C3000DEBF0FBECDBFCF91DF910F910895809190
:101C4000AC01823011F40E944B008091AC018823DA
:101C500019F0813031F403C00E94B20208950E944D
:101C6000980008950E94C7070E94C80B0E941F0E8B
:101C70000E94110CFBCFAEE0B0E0E1E4FEE00C947A
:101C8000EA100D891E8986E08C831A8309838FEF01
:101C90009FE79E838D839E01275E3F4FCE01019675
:101CA0006F89788DA9010E945F0E2F813885020F00
:101CB000131FF80110822E96E4E00C940611ABE09D
:101CC000B0E0E5E6FEE00C94DC103C012B015A018B
:101CD000FC0117821682838181FD03C06FEF7FEFC5
:101CE000C6C19AE0892E1E010894211C311CF30103
:101CF0002381F20123FD859123FF81912F01882308
:101D000009F4B2C1853239F423FD859123FF819115
:101D10002F01853229F490E0B3010E945210E7CFE1
:101D2000982FFF24EE249924FFE1FF15D0F09B3279
:101D300069F09C3228F4903259F0933291F40EC03D
:101D40009D3249F0903369F441E024C052E0F52A15
:101D500084E0F82A28C098E0F92A25C0E0E1FE2AAC
:101D600022C0F7FC29C0892F80538A3070F4F6FE18
:101D700005C0989C902C1124980E15C0E89CE02C6E
:101D80001124E80EF0E2FF2A0EC09E3229F4F6FC80
:101D90006BC140E4F42A07C09C3619F450E8F52AD8
:101DA00002C0983649F4F20123FD959123FF9191E9
:101DB0002F01992309F0B8CF892F8554833018F06B
:101DC0008052833038F444E050E0A40EB51E5FE347
:101DD00059830FC0933631F0933779F0933509F07A
:101DE00056C020C0F5018081898342E050E0A40EF6
:101DF000B51E610101E010E012C0F501C080D18084
:101E0000F6FC03C06FEF7FEF02C0692D70E042E087
:101E100050E0A40EB51EC6010E9447108C015FE77A
:101E2000F52214C0F501C080D180F6FC03C06FEF2D
:101E30007FEF02C0692D70E042E050E0A40EB51EB5
:101E4000C6010E943C108C0150E8F52AF3FE07C041
:101E50001AC080E290E0B3010E945210EA948E2DE5
:101E600090E008171907A8F30EC0F601F7FC85915A
:101E7000F7FE81916F0190E0B3010E945210E110D2
:101E8000EA94015010400115110579F7EAC0943623
:101E900011F0993669F5F7FE08C0F501208131810E
:101EA0004281538184E090E00AC0F50180819181F4
:101EB0009C01442737FD4095542F82E090E0A80E06
:101EC000B91E9FE6F92257FF09C0509540953095FD
:101ED00021953F4F4F4F5F4FE0E8FE2ACA01B901FD
:101EE000A1012AE030E00E947E10D82ED21840C016
:101EF000953729F41F2D1F7E2AE030E01DC01F2DCD
:101F0000197F9F3661F0903720F4983509F0ACC006
:101F10000FC0903739F0983709F0A6C004C028E008
:101F200030E00AC0106114FD146020E130E004C00C
:101F300014FD166020E132E017FF08C0F501608152
:101F400071818281938144E050E008C0F501808175
:101F50009181BC0180E090E042E050E0A40EB51E0B
:101F6000A1010E947E10D82ED2188FE7F82EF12200
:101F7000F6FE0BC05EEFF522D91438F4F4FE07C06C
:101F8000F2FC05C08FEEF82202C01D2D01C0192DF4
:101F9000F4FE0DC0FE01ED0DF11D8081803319F4BA
:101FA00099EEF92208C01F5FF2FE05C003C08F2D15
:101FB000867809F01F5F0F2DF3FC14C0F0FE0FC0F0
:101FC0001E1510F09D2C0BC09D2C9E0C911A1E2DE1
:101FD00006C080E290E0B3010E9452101F5F1E1500
:101FE000C0F304C01E1510F4E11A01C0EE2404FF72
:101FF0000FC080E390E0B3010E94521002FF1DC0A9
:1020000001FD03C088E790E00EC088E590E00BC0BA
:10201000802F867891F001FF02C08BE201C080E240
:10202000F7FC8DE290E0B3010E94521006C080E3FD
:1020300090E0B3010E9452109A94D914C0F3DA943C
:10204000F101ED0DF11D808190E0B3010E9452106D
:10205000DD20A9F706C080E290E0B3010E94521093
:10206000EA94EE20C1F743CEF30166817781CB017C
:102070002B96E2E10C94F810FC0105906150704041
:102080000110D8F7809590958E0F9F1F0895FC0141
:102090006150704001900110D8F7809590958E0F97
:1020A0009F1F08950F931F93CF93DF938C01EB0134
:1020B0008B8181FF1BC082FF0DC02E813F818C81EF
:1020C0009D812817390764F4E881F9810193F98328
:1020D000E88306C0E885F985802F0995892B31F4BE
:1020E0008E819F8101969F838E8302C00FEF1FEF29
:1020F000C801DF91CF911F910F910895FA01AA278E
:10210000283051F1203181F1E8946F936E7F6E5F3A
:102110007F4F8F4F9F4FAF4FB1E03ED0B4E03CD0E8
:10212000670F781F891F9A1FA11D680F791F8A1FCB
:10213000911DA11D6A0F711D811D911DA11D20D032
:1021400009F468943F912AE0269F11243019305DEC
:102150003193DEF6CF010895462F4770405D4193DD
:10216000B3E00FD0C9F7F6CF462F4F70405D4A332A
:1021700018F0495D31FD4052419302D0A9F7EACFF2
:10218000B4E0A6959795879577956795BA95C9F721
:1021900000976105710508959B01AC010A2E069414
:1021A0005795479537952795BA95C9F7620F731FCD
:1021B000841F951FA01D08952F923F924F925F920A
:1021C0006F927F928F929F92AF92BF92CF92DF9247
:1021D000EF92FF920F931F93CF93DF93CDB7DEB7AC
:1021E000CA1BDB0B0FB6F894DEBF0FBECDBF099440
:1021F0002A88398848885F846E847D848C849B8497
:10220000AA84B984C884DF80EE80FD800C811B81A4
:10221000AA81B981CE0FD11D0FB6F894DEBF0FBED3
:0A222000CDBFED010895F894FFCF43
:10222A0030300030303A00256400202057656C6356
:10223A006F6D6520546F20416C61717361200020BD
:10224A0020202043686F6F7365204D6F64650041DD
:10225A0075746F202020204F522020204D616E750A
:10226A00616C0020206175746F6D61746963204D23
:10227A006F646500507265737320537461727420C1
:10228A00427574746F6E200052696E7365005761EF
:10229A0073680052696E73653200447261696E0038
:1022AA002020202020456E642121004D616E756139
:1022BA006C204D6F646500507265737320427574AB
:1022CA00746F6E20546F2052756E00576174657278
:1022DA002046696C6C0048656174657200526967D2
:1022EA006874204D6F746F722052756E004C65666B
:1022FA0074204D6F746F722052756E00446F6F7246
:10230A00204C6F636B004572726F722043686F6F67
:10231A00736500202020202020202020202020203B
:10232A0020092020202020200020200920202020F1
:10233A0020202020202020202020202020200020B3
:10234A00202020202020202020202020202009209A
:10235A002020202000202020202020202020202093
:10236A00200920202020202020200006020101012F
:10237A000101010101010178010139033301010160
:10238A00330301013304010133050101330601015D
:10239A0033070101300101013604360536060036DD
:1023AA0007003007300400360330063005330830A2
:1023BA0008360001013302010136003901390239B8
:1023CA00033904390539069B9B3738392F3435369A
:1023DA002A3132332D23303D2B530169017F019578
:0223EA000100F0
:00000001FF
