:100000000C942A000C9437040C9461040C948B0417
:100010000C9447000C9447000C9447000C94470044
:100020000C9447000C9447000C9447000C94F70381
:100030000C9447000C9447000C9447000C94470024
:100040000C9447000C9447000C9447000C94470014
:100050000C94470011241FBECFE5D4E0DEBFCDBF16
:1000600011E0A0E6B0E0E4E9FEE102C005900D92E7
:10007000AC34B107D9F711E0ACE4B1E001C01D9296
:10008000A636B107E1F70E94640C0C94480F0C945B
:10009000000081E00895DF93CF9300D0CDB7DEB7A5
:1000A00081E089838A838AE291E0BE016F5F7F4F9E
:1000B0000E94930B81EF90E0BE016E5F7F4F0E9424
:1000C000930B9981992331F48A81813019F410922C
:1000D000D8000FC08A81882349F4913019F4909395
:1000E000D80007C0992311F483E001C082E0809317
:1000F000D80081E00F900F90CF91DF91089580910B
:10010000D800813009F045C08091D700882339F4A8
:1001100080E391E061E041E020E630E038C08130EA
:1001200039F480E391E061E041E026E630E02FC061
:10013000823039F480E391E061E041E02DE630E087
:1001400026C0833039F480E391E061E041E023E7A9
:1001500030E01DC0843039F480E391E061E041E09B
:1001600029E730E014C0853039F480E391E061E0A4
:1001700041E02EE730E00BC080E391E00E94D70918
:1001800080E391E061E041E023E830E030E00E946C
:100190001E0A81E008958091D900882349F480E205
:1001A00091E061E00E94CB058EE191E061E008C042
:1001B00080E291E060E00E94CB058EE191E060E09A
:1001C0000E94CB0581E008951F93DF93CF9300D069
:1001D00000D000D0CDB7DEB70E944B001091D80000
:1001E000113009F0E8C019831A831B831C831D8317
:1001F0001E8385EF90E0BE016F5F7F4F0E94930BDF
:1002000089EF90E0BE016E5F7F4F0E94930B8DEFF0
:1002100090E0BE016D5F7F4F0E94930B81E091E003
:10022000BE016C5F7F4F0E94930B85E091E0BE01A1
:100230006B5F7F4F0E94930B89E091E0BE016A5F84
:100240007F4F0E94930B8981882321F41092D7005D
:100250001A8306C08A81882339F41093D700198342
:100260001B831C831D8322C08B81882331F483E090
:100270008093D70019831A83F4CF8C81882339F4B3
:1002800084E08093D70019831A831B83EBCF8D8181
:10029000882311F482E004C08E81882339F485E03C
:1002A0008093D70019831A831B831C831091D70076
:1002B000112399F411E01E8385EF90E0BE016A5F7F
:1002C0007F4F0E94930B8E81882319F48DE091E07B
:1002D00067C01E838DE091E068C0113091F41E83E9
:1002E00089EF90E0BE016A5F7F4F0E94930B8E8181
:1002F000882319F48FE091E053C01E838FE091E0D2
:1003000054C0123099F411E01E8385E091E0BE01E3
:100310006A5F7F4F0E94930B8E81882319F489E1D5
:1003200091E03EC01E8389E191E03FC0133099F413
:1003300011E01E838DEF90E0BE016A5F7F4F0E9447
:10034000930B8E81882319F481E191E029C01E83EB
:1003500081E191E02AC0143099F411E01E8381E01C
:1003600091E0BE016A5F7F4F0E94930B8E818823CC
:1003700019F484E191E014C01E8384E191E015C07A
:100380001530B9F411E01E8389E091E0BE016A5F87
:100390007F4F0E94930B8E81882321F48CE191E0A2
:1003A00061E004C01E838CE191E060E00E94CB0517
:1003B00002C01092D90081E026960FB6F894DEBFF5
:1003C0000FBECDBFCF91DF911F9108953091DE0018
:1003D000332331F481E080934F018093DE0030C0FD
:1003E0009091DF00992339F483E080934F0181E0FD
:1003F0008093DF0025C02091E100222329F482E0D0
:1004000080934F0181E00EC08091E000882369F461
:1004100084E080934F0181E08093DE008093DF00D1
:100420008093E0008093E1000BC0313049F49130BB
:1004300039F4813029F4213019F485E080934F019B
:1004400080914F010895EF92FF920F931F93162F03
:10045000F42EE22E80914D01801789F04E5F80E3EB
:1004600091E023E930E00E941E0A4F2D4D5F80E3AA
:1004700091E0612F202F0E94370A00934D01809157
:10048000E2008E1589F080E391E0612F4F2D27E97E
:1004900030E00E941E0A80E391E0612F4F2D2E2D47
:1004A0000E94370AE092E20081E01F910F91FF90D5
:1004B000EF90089582E291E06AED70E00E94F50508
:1004C0008091DA00882339F48DE091E061E00E94A8
:1004D000CB0581E008958DE091E060E00E94CB05BE
:1004E00080E008951F930E945A028093E4001091C7
:1004F000DC00113009F581E191E00E946A080E9458
:10050000BD0382E691E063E671E00E94EE03809114
:100510006301882379F081E191E00E9465080E94DF
:10052000CA0310926301109262011092DC001092D3
:10053000E60002C01093E6008091E6008093E3009D
:100540008DE091E061E00E94CB058DE091E060E0FC
:100550000E94CB0510924E018091E400882331F473
:100560008091E300882311F41092E5008091E5006A
:100570001F9108951F930E945A028093EA008823D6
:1005800049F51091DB00113009F581E191E00E94FD
:100590006A080E94BD0385E691E060E671E00E9472
:1005A000EE0380916001882379F081E191E00E945F
:1005B00065080E94CA0310926001109265011092B2
:1005C000DB001092EC0002C01093EC008091EC0074
:1005D0008093E9008091E900882351F48DE091E057
:1005E00061E00E94CB058DE091E060E00E94CB05C8
:1005F0008091EA00882339F48091E900882319F476
:100600001092EB0003C081E08093EB008091EB003F
:100610001F9108951F9386E291E067EE70E00E94BB
:10062000930B8091E700882309F07BC00E94E601CC
:100630008093E800823079F1833030F4882351F0E0
:10064000813009F066C011C08330D1F0843009F0E8
:1006500060C058C00E94BA028093DE0080E391E03F
:1006600062E041E02AE930E05AC00E9472028093C1
:10067000DF0080E391E062E041E02FE930E04FC02D
:100680000E94BA028093E10080E391E062E041E0E1
:1006900024EA30E044C087E191E061E00E94CB05AC
:1006A0001091DC00113009F589E191E00E946A089F
:1006B0000E94BD0384E691E061E671E00E94EE03D2
:1006C00080916101882379F089E191E00E946508B9
:1006D0000E94CA0310926101109264011092DD0021
:1006E0001092EE0002C01093EE008091EE00809315
:1006F000ED008093E00080E391E062E041E02AEACF
:1007000030E00DC080E391E062E041E020EB30E0BA
:1007100006C080E391E062E041E024EB30E00E941B
:100720001E0A81E01F9108958FB780688FBF80E80F
:100730008FBD88E08EBD84EF8DBD83E28ABD89B711
:10074000806189BF81E0089581E0089581E0089586
:1007500080915501811181E008958FB780688FBF26
:1007600083B7816083BF83B78D7F83BF83B7846086
:1007700083BF89B7816089BF089583B7816083BFD4
:1007800083B78D7F83BF83B7846083BF81E080930D
:100790005501089513BE83B78E7F83BF83B78D7FC6
:1007A00083BF83B78B7F83BF1092550181E008958B
:1007B000FC01809152018D3381F4809153018F5F50
:1007C0008093530180915301808310925201809154
:1007D00053018C3311F4109253010895FC01DB0195
:1007E000809153018083809154018C9308951F92CE
:1007F0000F920FB60F9211248F93809152018F5F49
:100800008093520188B7816088BF809152018E31F8
:10081000C0F0809153018F5F809353011092520179
:10082000809153018C3368F01092530180915401F0
:100830008F5F80935401809154018C3310F010929B
:1008400054018F910F900FBE0F901F90189520E0CC
:10085000892B09F421E0822F08958FB780688FBF1C
:1008600080E008958FB780688FBF80E008951F9261
:100870000F920FB60F9211242F933F934F935F93D4
:100880006F937F938F939F93AF93BF93EF93FF9358
:10089000E0915601F091570109958AB780648ABFAB
:1008A000FF91EF91BF91AF919F918F917F916F9148
:1008B0005F914F913F912F910F900FBE0F901F901E
:1008C00018951F920F920FB60F9211242F933F93FA
:1008D0004F935F936F937F938F939F93AF93BF9348
:1008E000EF93FF93E0915801F091590109958AB770
:1008F00080688ABFFF91EF91BF91AF919F918F91D7
:100900007F916F915F914F913F912F910F900FBE0B
:100910000F901F9018951F920F920FB60F921124EF
:100920002F933F934F935F936F937F938F939F93F7
:10093000AF93BF93EF93FF93E0915A01F0915B0166
:1009400009958AB780628ABFFF91EF91BF91AF91FD
:100950009F918F917F916F915F914F913F912F91D7
:100960000F900FBE0F901F9018950F931F93DF935A
:10097000CF9300D000D000D0CDB7DEB78C01009768
:1009800011F481E0B7C0FC012281213049F021300F
:1009900018F0223069F408C08BB780648BBF10C098
:1009A0008BB780688BBF29C08BB780628BBF43C079
:1009B000213019F1213020F0223009F049C03BC02C
:1009C000F8018381813051F0813028F0823061F06C
:1009D0008330F1F50CC085B78E7F02C085B781608A
:1009E00085BF85B7826025C085B7816002C085B7A5
:1009F0008E7F85BF85B78D7F1CC0F80183818130D4
:100A000051F0813028F0823061F0833009F50CC05C
:100A100085B78B7F02C085B7846085BF85B7886046
:100A200008C085B7846002C085B78B7F85BF85B756
:100A3000877F85BF0DC0F8018381882319F081303D
:100A400039F403C084B78F7B02C084B7806484BF4D
:100A50008FB780688FBF1A82198290E399838A8149
:100A6000887F8A608A831C821B829B838C81887F1B
:100A70008B608C831E821D8286E38D838E81887FAE
:100A80008B608E83213041F0213018F0223059F4F0
:100A900006C0CE01019605C0CE01039602C0CE016C
:100AA00005960E942806F8018281813079F0813014
:100AB00018F08230F1F414C0F80180819181009720
:100AC000C1F0909357018093560113C0F8018081C3
:100AD0009181009771F0909359018093580109C05A
:100AE000F80180819181009721F090935B018093C0
:100AF0005A0180E026960FB6F894DEBF0FBECDBF38
:100B0000CF91DF911F910F910895DC01009721F1A2
:100B1000662319F0613001F50FC0EC91F0E03181EE
:100B200011962C91277081E090E002C0880F991FE8
:100B30002A95E2F7382B0FC0EC91F0E03181119645
:100B40002C91277081E090E002C0880F991F2A95B0
:100B5000E2F780953823318381E00895CF93DF93C6
:100B6000DC01EB01009799F06115710581F0EC91C2
:100B7000F0E0818190E011962C91277002C095954C
:100B800087952A95E2F78170888380E001C081E033
:100B9000DF91CF910895DC01009729F1662389F058
:100BA000613009F5EC91F0E0328111962C912770BB
:100BB00081E090E002C0880F991F2A95E2F7382B58
:100BC0000FC0EC91F0E0328111962C91277081E0FA
:100BD00090E002C0880F991F2A95E2F7809538238C
:100BE000328380E0089581E00895CF93DF93DC01A4
:100BF000EB01009799F06115710581F0EC91F0E03F
:100C0000808190E011962C91277002C09595879570
:100C10002A95E2F78170888380E001C081E0DF914E
:100C2000CF910895DC01009711F481E00895EC91D3
:100C3000F0E0328111962C91277081E090E002C0A3
:100C4000880F991F2A95E2F73827328380E00895AC
:100C5000CF93DF93EC01009711F481E00DC069811F
:100C600066956695669561700E94850569816295B5
:100C70006170CE010E94CB05DF91CF91089566236C
:100C800021F0613041F081E00895E82FF0E08FEF2E
:100C9000818380E00895E82FF0E0118280E00895DC
:100CA00080E00895893341F0863331F0833321F0B9
:100CB000803311F081E00895E82FF0E0628380E056
:100CC000089580E0089580E00895DC01EC91F0E063
:100CD000828190E011962C91277002C0959587959E
:100CE0002A95E2F781700895009711F481E0089544
:100CF0000E94120680E00895EF92FF921F93CF9317
:100D0000DF93EC01009711F481E00FC010E084ED57
:100D1000E82E80E3F82ECE010E941206C70101974B
:100D2000F1F71F5F1431B9F780E0DF91CF911F9188
:100D3000FF90EF900895DF93CF9300D0CDB7DEB74B
:100D4000FC01208191819770EF2B11F481E00CC0A0
:100D50001A8219828A81887F892B8A832983CE010E
:100D600001960E94120680E00F900F90CF91DF91C4
:100D70000895DF93CF9300D0CDB7DEB7FC0120817B
:100D800091819770EF2B11F481E00DC01A821982C6
:100D90008A81887F892B8A832983CE01019660E02E
:100DA0000E94CB0580E00F900F90CF91DF910895C6
:100DB000DF93CF9300D0CDB7DEB7FC0120819181C6
:100DC0009770EF2B11F481E00EC01A8219828A818C
:100DD0008061887F892B8A832983CE01019661E017
:100DE0000E94CB0580E00F900F90CF91DF91089586
:100DF000DF93CF9300D0CDB7DEB7FC01009711F49D
:100E000081E011C02181808189838A81807E922F37
:100E1000990F90712770822B892B8A83CE010196BE
:100E20000E94280680E00F900F90CF91DF910895E7
:100E30002F923F924F925F926F927F928F929F92EA
:100E4000AF92BF92CF92DF92EF92FF920F931F93D8
:100E5000DF93CF930F92CDB7DEB76C011B010097E4
:100E600009F461C01982AA24BB2462E0462E512CE9
:100E7000480E591E54E0652E712C680E791E46E00E
:100E8000842E912C880E991E28C0C7010496880FC5
:100E9000991F8C0D9D1DBE016F5F7F4F0E94F50550
:100EA0008981813041F484EC99E00197F1F7F801F0
:100EB0008081F10180830894E11CF11C0F5F1F4FBA
:100EC000F4E0EF16F10409F70894A11CB11C84E0CA
:100ED000A816B10411F480E027C0C60160E00E94AA
:100EE000CB05C20160E00E94CB05C30160E00E9417
:100EF000CB05C40160E00E94CB05C501880F991F96
:100F00008C0D9D1D61E00E94CB0584EC99E001975A
:100F1000F1F78501000F111F000F111F045C1E4F18
:100F2000EE24FF24B2CF81E00F90CF91DF911F918B
:100F30000F91FF90EF90DF90CF90BF90AF909F9078
:100F40008F907F906F905F904F903F902F9008957B
:100F5000CF93DF93EC01009711F481E030C08981D9
:100F6000877E8983CE010E9428068B81877E8B83B2
:100F7000CE0102960E9428068D81877E8D83CE0148
:100F800004960E9428068F81877E8F83CE01069665
:100F90000E942806CE01089661E00E948505CE01D8
:100FA0000A9661E00E948505CE010C9661E00E94E0
:100FB0008505CE010E9661E00E94850580E0DF91F7
:100FC000CF9108950F931F938DE591E06CE571E04B
:100FD0000E94EE0300E311E0C80161E043E02AE370
:100FE0000E94910AC80161E044E020915D010E94E5
:100FF000370AC80161E041E020915C010E94370A94
:101000001F910F9108958DE091E00E9428068FE0D6
:1010100091E00E94280687E191E00E9428068CE179
:1010200091E00E9428068EE191E00E94280680E26D
:1010300091E00E94280682E291E00E94280684E264
:1010400091E00E94280681EF90E00E94D80B85EF86
:1010500090E00E94D80B89EF90E00E94D80B8DEFB2
:1010600090E00E94D80B81E091E00E94D80B85E0CF
:1010700091E00E94D80B89E091E00E94D80B86E2B3
:1010800091E00E94D80B8AE291E00E94D80B80E3A5
:1010900091E00E942F0B0E94AD030E94CA0381E1E0
:1010A00091E00E946F0884E191E00E946F0889E15D
:1010B00091E00E946F0881E008950E94650690E02B
:1010C000813009F491E0892F089560E00E94CB05FA
:1010D00080E0089561E00E94CB0580E0089560E023
:1010E0000E94850580E00895EF92FF920F931F9371
:1010F000CF93DF938C01F62E009711F481E029C085
:1011000060E00E94CB05C0E0D0E0EF2CFF24CE01D0
:101110000296880F991FB7010C2E02C0759567952E
:101120000A94E2F76170800F911F0E94CB0521960F
:10113000C830D10561F70E5F1F4FC80161E00E9402
:10114000CB0582EE94E00197F1F7C80160E00E94C0
:10115000CB05DF91CF911F910F91FF90EF900895F4
:10116000623069F0633018F4613029F406C06330EE
:1011700041F0643059F080E00895415803C0415473
:1011800001C04D56642F0E94740808954D52642F7B
:101190000E9474080895EF92FF920F931F93CF93CC
:1011A000DF938C01F62E009711F481E029C061E0F5
:1011B0000E94CB05C0E0D0E0EF2CFF24CE010296C8
:1011C000880F991FB7010C2E02C0759567950A9478
:1011D000E2F76170800F911F0E94CB052196C83005
:1011E000D10561F70E5F1F4FC80161E00E94CB057A
:1011F00082EE94E00197F1F7C80160E00E94CB0510
:10120000DF91CF911F910F91FF90EF9008950F9371
:101210001F93CF93DF938C01EB01009711F481E0D2
:1012200009C080E004C02196C8010E94CB086881F3
:101230006623C9F7DF91CF911F910F9108950F9306
:101240001F93CF93DF93EC018901009711F481E0A4
:1012500006C00E94B008CE01B8010E940709DF91C4
:10126000CF911F910F9108951F93CF93DF93EC01BE
:10127000122F009711F481E006C00E94B008CE0141
:10128000612F0E94CB08DF91CF911F910895BF92EB
:10129000CF92DF92EF92FF920F931F93CF93DF9342
:1012A0007C01162FB42E6901009711F481E01EC055
:1012B000602F70E0685F7F4F43E0660F771F4A95AD
:1012C000E1F70E947408C0E0D0E0F601EC0FFD1FCA
:1012D000C70160810E94CB082196C830D105A9F7CB
:1012E000C701612F4B2D202F0E943409DF91CF9130
:1012F0001F910F91FF90EF90DF90CF90BF900895D6
:10130000EF92FF921F937C01162F617004960E944A
:10131000CB05612F66956170C70106960E94CB05CB
:1013200016951695612F6170C70108960E94CB052E
:1013300016951170C7010A96612F0E94CB051F9167
:10134000FF90EF9008950F931F938C010E5F1F4F36
:10135000C80161E00E94CB0582EE94E00197F1F7AD
:10136000C80160E00E94CB051F910F9108951F9363
:10137000CF93DF93EC01162F009711F481E013C097
:1013800060E00E94CB05612F62956F70CE010E94D4
:101390008009CE010E94A309CE01612F0E9480091D
:1013A000CE010E94A309DF91CF911F91089561E0C2
:1013B0000E94B7090895623069F0633018F4613013
:1013C00029F406C0633041F0643079F080E008957C
:1013D000415803C0415401C04D56642F0E94B709C3
:1013E000E8EAF1E63197F1F708954D52642F0E9433
:1013F000B709E8EAF1E63197F1F708951F93CF9323
:10140000DF93EC01162F009711F481E013C061E027
:101410000E94CB05612F62956F70CE010E948009FA
:10142000CE010E94A309CE01612F0E948009CE0146
:101430000E94A309DF91CF911F9108950F931F93ED
:10144000CF93DF938C01E901009711F481E00AC08A
:101450000E94DB0904C02196C8010E94FE09688130
:101460006623C9F7DF91CF911F910F910895CF9215
:10147000DF92EF92FF920F931F93DF93CF9300D0F1
:1014800000D0CDB7DEB77C01D62EC42E00D000D060
:1014900000D0EDB7FEB731968E010F5F1F4FADB78D
:1014A000BEB712961C930E9311978AEB90E093832C
:1014B0008283248315820E94700C8DB79EB7069696
:1014C0000FB6F8949EBF0FBE8DBFC7016D2D4C2D7A
:1014D00098010E941E0A81E00F900F900F900F90CC
:1014E000CF91DF911F910F91FF90EF90DF90CF9000
:1014F00008950F931F93CF93DF938C01EB01009717
:1015000011F481E009C080E004C02196C8010E9466
:10151000FE0968816623C9F7DF91CF911F910F9172
:1015200008951F93CF93DF93EC01122F009711F4CE
:1015300081E006C00E94DB09CE01612F0E94FE09F6
:10154000DF91CF911F910895BF92CF92DF92EF92DA
:10155000FF920F931F93CF93DF937C01162FB42E2E
:101560006901009711F481E01EC0602F70E0685F90
:101570007F4F53E0660F771F5A95E1F70E94B70936
:10158000C0E0D0E0F601EC0FFD1FC70160810E94B2
:10159000FE092196C830D105A9F7C701612F4B2D4F
:1015A000202F0E94910ADF91CF911F910F91FF9000
:1015B000EF90DF90CF90BF9008950F931F93CF933C
:1015C000DF938C01009711F481E044C00E9428064B
:1015D000C80102960E942806C0E0D0E02296CE0103
:1015E000880F991F800F911F0E9428062197C830ED
:1015F000D105A1F788E893E10197F1F7C80168E305
:101600000E94740882EE94E00197F1F7C80168E344
:101610000E9474088CE792E90197F1F7C80168E32A
:101620000E947408C80161E00E947408C80162E069
:101630000E947408C80166E00E947408C8016CE04A
:101640000E947408C80168E30E947408C80160E839
:101650000E947408DF91CF911F910F9108950F930D
:101660001F93CF93DF93EC01009711F481E056C0F4
:1016700060E00E948505CE01029660E00E9485052B
:10168000CE01049660E00E948505CE01069660E0DA
:101690000E948505CE01089660E00E948505CE0176
:1016A0000A9660E00E94850588E893E10197F1F7CA
:1016B000CE0168E30E94B70982EE94E00197F1F74A
:1016C000CE0168E30E94B7090CE712E9C80101974F
:1016D000F1F7CE0168E30E94B709CE0161E00E94F4
:1016E000B709CE0162E00E94B709CE0166E00E9410
:1016F000B709CE016CE00E94B709CE0168E20E94F2
:10170000B709CE0160E80E94B709F8013197F1F7F7
:10171000F8013197F1F7F8013197F1F7DF91CF91A7
:101720001F910F910895EF92FF920F931F93DF93F4
:10173000CF9300D00F92CDB7DEB78C017B01FC01B7
:101740002081918197700115110539F1611571059D
:1017500021F11B821A828B81887F892B8B832A83BC
:101760001982CE010296BE016F5F7F4F0E94F50580
:10177000F8018381882329F48981813051F081E047
:1017800005C0813041F48981813019F4F7018083EB
:1017900002C0F701108280E001C081E00F900F903D
:1017A0000F90CF91DF911F910F91FF90EF900895CF
:1017B000009711F481E0089561E00E948505089585
:1017C0000E944B008091D800882319F0813031F4B9
:1017D00003C00E940A0308950E94E40008958091C6
:1017E0005F018230A9F1833030F4882359F08130D1
:1017F00009F069C01AC0833009F43DC0843009F093
:1018000062C04EC080E391E061E041E02DEB30E04A
:101810000E941E0A88E893E129E130E0F90131973E
:10182000F1F70197D9F781E038C080E391E061E0FA
:1018300041E022EC30E00E941E0A88E893E129E1B1
:1018400030E0F9013197F1F70197D9F782E025C02F
:1018500080E391E061E041E027EC30E00E941E0A65
:1018600088E893E129E130E0F9013197F1F7019738
:10187000D9F783E012C080E391E061E041E02DEC14
:1018800030E00E941E0A88E893E129E130E0F90186
:101890003197F1F70197D9F784E080935F010895BC
:1018A00080E391E061E041E023ED30E00E941E0A18
:1018B00088E893E129E130E0F9013197F1F70197E8
:1018C000D9F710925F0108950E9403080E940A034D
:1018D000282F80E391E061E041E00E94370AF6CFD3
:1018E000AEE0B0E0E6E7FCE00C941F0F0D891E8926
:1018F00086E08C831A8309838FEF9FE79E838D8315
:101900009E01275E3F4FCE0101966F89788DA90118
:101910000E94940C2F813885020F131FF80110824A
:101920002E96E4E00C943B0FABE0B0E0EAE9FCE07B
:101930000C94110F3C012B015A01FC0117821682F5
:10194000838181FD03C06FEF7FEFC6C19AE0892ECE
:101950001E010894211C311CF3012381F20123FD97
:10196000859123FF81912F01882309F4B2C185322B
:1019700039F423FD859123FF81912F01853229F4CC
:1019800090E0B3010E94870EE7CF982FFF24EE244A
:101990009924FFE1FF15D0F09B3269F09C3228F4C6
:1019A000903259F0933291F40EC09D3249F0903349
:1019B00069F441E024C052E0F52A84E0F82A28C006
:1019C00098E0F92A25C0E0E1FE2A22C0F7FC29C0F0
:1019D000892F80538A3070F4F6FE05C0989C902CB5
:1019E0001124980E15C0E89CE02C1124E80EF0E2BA
:1019F000FF2A0EC09E3229F4F6FC6BC140E4F42AA3
:101A000007C09C3619F450E8F52A02C0983649F40C
:101A1000F20123FD959123FF91912F01992309F064
:101A2000B8CF892F8554833018F08052833038F432
:101A300044E050E0A40EB51E5FE359830FC0933617
:101A400031F0933779F0933509F056C020C0F50195
:101A50008081898342E050E0A40EB51E610101E05F
:101A600010E012C0F501C080D180F6FC03C06FEF1A
:101A70007FEF02C0692D70E042E050E0A40EB51E79
:101A8000C6010E947C0E8C015FE7F52214C0F501AF
:101A9000C080D180F6FC03C06FEF7FEF02C0692DDC
:101AA00070E042E050E0A40EB51EC6010E94710E27
:101AB0008C0150E8F52AF3FE07C01AC080E290E0DE
:101AC000B3010E94870EEA948E2D90E00817190743
:101AD000A8F30EC0F601F7FC8591F7FE81916F0126
:101AE00090E0B3010E94870EE110EA94015010408B
:101AF0000115110579F7EAC0943611F0993669F5A8
:101B0000F7FE08C0F501208131814281538184E0D4
:101B100090E00AC0F501808191819C01442737FD46
:101B20004095542F82E090E0A80EB91E9FE6F9225E
:101B300057FF09C050954095309521953F4F4F4F25
:101B40005F4FE0E8FE2ACA01B901A1012AE030E0B6
:101B50000E94B30ED82ED21840C0953729F41F2DFD
:101B60001F7E2AE030E01DC01F2D197F9F3661F0D7
:101B7000903720F4983509F0ACC00FC0903739F099
:101B8000983709F0A6C004C028E030E00AC0106110
:101B900014FD146020E130E004C014FD166020E163
:101BA00032E017FF08C0F501608171818281938165
:101BB00044E050E008C0F50180819181BC0180E0E3
:101BC00090E042E050E0A40EB51EA1010E94B30EC9
:101BD000D82ED2188FE7F82EF122F6FE0BC05EEF5A
:101BE000F522D91438F4F4FE07C0F2FC05C08FEEDC
:101BF000F82202C01D2D01C0192DF4FE0DC0FE01FA
:101C0000ED0DF11D8081803319F499EEF92208C0A1
:101C10001F5FF2FE05C003C08F2D867809F01F5F9D
:101C20000F2DF3FC14C0F0FE0FC01E1510F09D2CFC
:101C30000BC09D2C9E0C911A1E2D06C080E290E0D8
:101C4000B3010E94870E1F5F1E15C0F304C01E154E
:101C500010F4E11A01C0EE2404FF0FC080E390E00D
:101C6000B3010E94870E02FF1DC001FD03C088E77B
:101C700090E00EC088E590E00BC0802F867891F050
:101C800001FF02C08BE201C080E2F7FC8DE290E030
:101C9000B3010E94870E06C080E390E0B3010E946A
:101CA000870E9A94D914C0F3DA94F101ED0DF11D69
:101CB000808190E0B3010E94870EDD20A9F706C065
:101CC00080E290E0B3010E94870EEA94EE20C1F713
:101CD00043CEF30166817781CB012B96E2E10C9430
:101CE0002D0FFC010590615070400110D8F78095D0
:101CF00090958E0F9F1F0895FC01615070400190D8
:101D00000110D8F7809590958E0F9F1F08950F931F
:101D10001F93CF93DF938C01EB018B8181FF1BC05D
:101D200082FF0DC02E813F818C819D81281739074C
:101D300064F4E881F9810193F983E88306C0E885BA
:101D4000F985802F0995892B31F48E819F81019629
:101D50009F838E8302C00FEF1FEFC801DF91CF91E9
:101D60001F910F910895FA01AA27283051F12031CF
:101D700081F1E8946F936E7F6E5F7F4F8F4F9F4F1F
:101D8000AF4FB1E03ED0B4E03CD0670F781F891F61
:101D90009A1FA11D680F791F8A1F911DA11D6A0F2F
:101DA000711D811D911DA11D20D009F468943F91E2
:101DB0002AE0269F11243019305D3193DEF6CF01E1
:101DC0000895462F4770405D4193B3E00FD0C9F7A7
:101DD000F6CF462F4F70405D4A3318F0495D31FD14
:101DE0004052419302D0A9F7EACFB4E0A695979567
:101DF000879577956795BA95C9F70097610571053D
:101E000008959B01AC010A2E069457954795379586
:101E10002795BA95C9F7620F731F841F951FA01DE0
:101E200008952F923F924F925F926F927F928F927E
:101E30009F92AF92BF92CF92DF92EF92FF920F9359
:101E40001F93CF93DF93CDB7DEB7CA1BDB0B0FB663
:101E5000F894DEBF0FBECDBF09942A883988488820
:101E60005F846E847D848C849B84AA84B984C884B6
:101E7000DF80EE80FD800C811B81AA81B981CE0FAD
:101E8000D11D0FB6F894DEBF0FBECDBFED01089592
:041E9000F894FFCFF4
:101E9400776174657200686561746572006472616B
:101EA400696E007269676874006C65667400646FBB
:101EB4006F7200416C617173616120436F6D706179
:101EC4006E79003A20200020200072696E7300773A
:101ED4006173680072696E733200647261696E00C6
:101EE400656E64006572726F720025640072696EBB
:101EF4007300776173680072696E73320064726193
:101F0400696E00656E6400060301010101010505A7
:101F140005057801010101010501010101010139F2
:101F240003330101013303010133040101330501CA
:101F34000133060101330701013001010136043682
:101F44000536060036070030073004003603300635
:101F54003005330830083600010133020101360030
:101F64003901390239033904390539063738392F2B
:0C1F74003435362A3132332D23303D2B1A
:00000001FF
