:100000000C942A000C94BC030C94E6030C9410048A
:100010000C9447000C9447000C9447000C94470044
:100020000C9447000C9447000C9447000C947C03FC
:100030000C9447000C9447000C9447000C94470024
:100040000C9447000C9447000C9447000C94470014
:100050000C94470011241FBECFE5D4E0DEBFCDBF16
:1000600011E0A0E6B0E0E6EEFCE102C005900D92E2
:10007000A633B107D9F711E0A6E3B1E001C01D92A4
:10008000AB34B107E1F70E94900B0C94710E0C9405
:10009000000081E00895DF93CF9300D0CDB7DEB7A5
:1000A00081E089838A8383E191E0BE016F5F7F4FA6
:1000B0000E94340B8DED90E0BE016E5F7F4F0E9479
:1000C000340B9981992331F48A81813019F410928B
:1000D000D7000FC08A81882349F4913019F4909396
:1000E000D70007C0992311F483E001C082E0809318
:1000F000D70081E00F900F90CF91DF91089580910C
:10010000D700813009F05DC08091D600882359F472
:1001100089E191E00E94340989E191E061E041E0E8
:1001200020E630E04CC0813059F489E191E00E9432
:10013000340989E191E061E041E026E630E03FC02A
:10014000823059F489E191E00E94340989E191E01B
:1001500061E041E02DE630E032C0833059F489E1BE
:1001600091E00E94340989E191E061E041E023E7F8
:1001700030E025C0843059F489E191E00E943409CF
:1001800089E191E061E041E029E730E018C0853085
:1001900059F489E191E00E94340989E191E061E03C
:1001A00041E02EE730E00BC089E191E00E94340984
:1001B00089E191E061E041E023E830E030E00E9435
:1001C000730981E008958091D800882349F489E07B
:1001D00091E061E00E94500587E091E061E008C095
:1001E00089E091E060E00E94500587E091E060E0E6
:1001F0000E94500581E008951F93DF93CF9300D0B4
:1002000000D000D0CDB7DEB70E944B001091D700D0
:10021000113009F0E8C019831A831B831C831D83E6
:100220001E8381EE90E0BE016F5F7F4F0E94340B12
:1002300085EE90E0BE016E5F7F4F0E94340B89EE29
:1002400090E0BE016D5F7F4F0E94340B8DEE90E019
:10025000BE016C5F7F4F0E94340B81EF90E0BE01C6
:100260006B5F7F4F0E94340B85EF90E0BE016A5FA9
:100270007F4F0E94340B8981882321F41092D6008D
:100280001A8306C08A81882339F41093D600198313
:100290001B831C831D8322C08B81882331F483E060
:1002A0008093D60019831A83F4CF8C81882339F484
:1002B00084E08093D60019831A831B83EBCF8D8152
:1002C000882311F482E004C08E81882339F485E00C
:1002D0008093D60019831A831B831C831091D60048
:1002E000112399F411E01E8381EE90E0BE016A5F54
:1002F0007F4F0E94340B8E81882319F489EF90E0A0
:1003000067C01E8389EF90E068C0113091F41E83AE
:1003100085EE90E0BE016A5F7F4F0E94340B8E81B4
:10032000882319F48BEF90E053C01E838BEF90E08D
:1003300054C0123099F411E01E8381EF90E0BE01A9
:100340006A5F7F4F0E94340B8E81882319F483E00B
:1003500091E03EC01E8383E091E03FC0133099F4EA
:1003600011E01E8389EE90E0BE016A5F7F4F0E941C
:10037000340B8E81882319F48DEF90E029C01E8301
:100380008DEF90E02AC0143099F411E01E838DEEB9
:1003900090E0BE016A5F7F4F0E94340B8E818823FC
:1003A00019F48FEF90E014C01E838FEF90E015C01A
:1003B0001530B9F411E01E8385EF90E0BE016A5F4D
:1003C0007F4F0E94340B8E81882321F485E091E0D9
:1003D00061E004C01E8385E091E060E00E9450056A
:1003E00002C01092D80081E026960FB6F894DEBFC6
:1003F0000FBECDBFCF91DF911F910895CF92DF92B5
:10040000EF92FF920F931F93D62E142FC22E89E1E5
:10041000E82E81E0F82EC70123E930E00E9473093D
:10042000C7016D2D412F2C2D0E948C091D5FC70126
:100430006D2D412F202F0E948C0981E01F910F917B
:10044000FF90EF90DF90CF9008958BE091E069ED01
:1004500070E00E947A058091D900882339F489EFF1
:1004600090E061E00E94500581E0089589EF90E0FE
:1004700060E00E94500580E008950F931F9389E18A
:1004800091E062E041E021E00E948C090E94250297
:10049000082F8DEF90E061E00E9450050E943C0320
:1004A0008AE491E065E471E00E9470038091450167
:1004B000823011F011E00CC08DEF90E060E00E94FE
:1004C00050050E9449031092450110924A0110E024
:1004D00089E191E063E041E0212F0E948C0989EFDE
:1004E00090E061E00E94500589EF90E060E00E949A
:1004F0005005002319F080E0112309F481E01F91D9
:100500000F9108951F93DF93CF930F92CDB7DEB76E
:1005100011E019838FE091E0BE016F5F7F4F0E9471
:10052000340B89E191E061E041E029810E948C096E
:100530008981882309F071C08091DA00823009F442
:1005400049C0833030F4882359F0813009F065C008
:1005500018C0833009F45BC0843009F05EC05AC013
:1005600089E191E061E048E020E00E948C090E946E
:100570003D02882319F41093DA004FC01092DA007C
:100580004CC00E9425028DEF90E061E00E94500572
:100590000E943C0387E491E068E471E00E947003EC
:1005A00080914801823059F48DEF90E060E00E9424
:1005B00050050E944903109248011092470189EFAB
:1005C00090E061E00E94500589EF90E060E00E94B9
:1005D000500523C081E091E061E00E9450050E9437
:1005E0003C0389E491E066E471E00E94700380912D
:1005F0004601823091F481E091E060E00E94500574
:100600000E944903109246011092490106C00E94BF
:100610003D0203C085E08093DA0081E00F90CF9126
:10062000DF911F9108958FB780688FBF80E88FBDDD
:1006300088E08EBD84EF8DBD83E28ABD89B780617D
:1006400089BF81E0089581E0089581E00895809157
:100650003B01811181E008958FB780688FBF83B718
:10066000816083BF83B78D7F83BF83B7846083BF7F
:1006700089B7816089BF089583B7816083BF83B7DD
:100680008D7F83BF83B7846083BF81E080933B010C
:10069000089513BE83B78E7F83BF83B78D7F83BFDB
:1006A00083B78B7F83BF10923B0181E00895FC01EB
:1006B00081E080933B01809138018F3181F48091FA
:1006C00039018F5F809339018091390180831092C5
:1006D0003801809139018C3311F410923901089559
:1006E000FC01DB0181E080933B0180913901808333
:1006F00080913A018C9308951F920F920FB60F923A
:1007000011248F93809138018F5F8093380188B7CF
:10071000816088BF809138018E31C0F080913901AD
:100720008F5F8093390110923801809139018C33A9
:1007300068F01092390180913A018F5F80933A01FD
:1007400080913A018C3310F010923A018F910F9002
:100750000FBE0F901F90189520E0892B09F421E01F
:10076000822F08958FB780688FBF80E008958FB77C
:1007700080688FBF80E008951F920F920FB60F928E
:1007800011242F933F934F935F936F937F938F9396
:100790009F93AF93BF93EF93FF93E0913C01F09150
:1007A0003D0109958AB780648ABFFF91EF91BF919F
:1007B000AF919F918F917F916F915F914F913F91F9
:1007C0002F910F900FBE0F901F9018951F920F92B0
:1007D0000FB60F9211242F933F934F935F936F9314
:1007E0007F938F939F93AF93BF93EF93FF93E0918A
:1007F0003E01F0913F0109958AB780688ABFFF9159
:10080000EF91BF91AF919F918F917F916F915F9188
:100810004F913F912F910F900FBE0F901F90189501
:100820001F920F920FB60F9211242F933F934F9365
:100830005F936F937F938F939F93AF93BF93EF9348
:10084000FF93E0914001F091410109958AB78062E0
:100850008ABFFF91EF91BF91AF919F918F917F914F
:100860006F915F914F913F912F910F900FBE0F901D
:100870001F9018950F931F93DF93CF9300D000D054
:1008800000D0CDB7DEB78C01009711F481E0B7C07E
:10089000FC012281213049F0213018F0223069F426
:1008A00008C08BB780648BBF10C08BB780688BBFCC
:1008B00029C08BB780628BBF43C0213019F1213032
:1008C00020F0223009F049C03BC0F801838181301B
:1008D00051F0813028F0823061F08330F1F50CC0A6
:1008E00085B78E7F02C085B7816085BF85B782607E
:1008F00025C085B7816002C085B78E7F85BF85B76B
:100900008D7F1CC0F8018381813051F0813028F047
:10091000823061F0833009F50CC085B78B7F02C04F
:1009200085B7846085BF85B7886008C085B7846057
:1009300002C085B78B7F85BF85B7877F85BF0DC018
:10094000F8018381882319F0813039F403C084B71A
:100950008F7B02C084B7806484BF8FB780688FBFED
:100960001A82198290E399838A81887F8A608A83B8
:100970001C821B829B838C81887F8B608C831E8270
:100980001D8286E38D838E81887F8B608E832130EC
:1009900041F0213018F0223059F406C0CE01019602
:1009A00005C0CE01039602C0CE0105960E94AD059A
:1009B000F8018281813079F0813018F08230F1F4D1
:1009C00014C0F801808191810097C1F090933D019E
:1009D00080933C0113C0F80180819181009771F0F0
:1009E00090933F0180933E0109C0F801808191817D
:1009F000009721F0909341018093400180E026967A
:100A00000FB6F894DEBF0FBECDBFCF91DF911F911F
:100A10000F910895DC01009721F1662319F06130F0
:100A200001F50FC0EC91F0E0318111962C91277007
:100A300081E090E002C0880F991F2A95E2F7382BD9
:100A40000FC0EC91F0E0318111962C91277081E07C
:100A500090E002C0880F991F2A95E2F7809538230D
:100A6000318381E00895CF93DF93DC01EB010097A0
:100A700099F06115710581F0EC91F0E0818190E0D1
:100A800011962C91277002C0959587952A95E2F7CB
:100A90008170888380E001C081E0DF91CF9108956B
:100AA000DC01009729F1662389F0613009F5EC91AA
:100AB000F0E0328111962C91277081E090E002C025
:100AC000880F991F2A95E2F7382B0FC0EC91F0E0C0
:100AD000328111962C91277081E090E002C0880F3E
:100AE000991F2A95E2F780953823328380E0089594
:100AF00081E00895CF93DF93DC01EB01009799F03B
:100B00006115710581F0EC91F0E0808190E0119623
:100B10002C91277002C0959587952A95E2F78170F0
:100B2000888380E001C081E0DF91CF910895DC01EE
:100B3000009711F481E00895EC91F0E03281119674
:100B40002C91277081E090E002C0880F991F2A95B0
:100B5000E2F73827328380E00895CF93DF93EC01EA
:100B6000009711F481E00DC06981669566956695E0
:100B700061700E940A05698162956170CE010E94D0
:100B80005005DF91CF910895662321F0613041F047
:100B900081E00895E82FF0E08FEF818380E00895F1
:100BA000E82FF0E0118280E0089580E00895893315
:100BB00041F0863331F0833321F0803311F081E04E
:100BC0000895E82FF0E0628380E0089580E00895C2
:100BD00080E00895009711F481E008950E94970540
:100BE00080E00895EF92FF921F93CF93DF93EC0183
:100BF000009711F481E00FC010E084EDE82E80E34F
:100C0000F82ECE010E949705C7010197F1F71F5FEB
:100C10001431B9F780E0DF91CF911F91FF90EF90F1
:100C20000895DF93CF9300D0CDB7DEB7FC012081CC
:100C300091819770EF2B11F481E00CC01A82198218
:100C40008A81887F892B8A832983CE0101960E941D
:100C5000970580E00F900F90CF91DF910895DF937B
:100C6000CF9300D0CDB7DEB7FC0120819181977082
:100C7000EF2B11F481E00DC01A8219828A81887FDE
:100C8000892B8A832983CE01019660E00E9450055A
:100C900080E00F900F90CF91DF910895DF93CF9375
:100CA00000D0CDB7DEB7FC01208191819770EF2B8A
:100CB00011F481E00EC01A8219828A818061887FD6
:100CC000892B8A832983CE01019661E00E94500519
:100CD00080E00F900F90CF91DF910895DF93CF9335
:100CE00000D0CDB7DEB7FC01009711F481E011C050
:100CF0002181808189838A81807E922F990F9071D2
:100D00002770822B892B8A83CE0101960E94AD0524
:100D100080E00F900F90CF91DF9108952F923F9236
:100D20004F925F926F927F928F929F92AF92BF92FB
:100D3000CF92DF92EF92FF920F931F93DF93CF93A7
:100D40000F92CDB7DEB76C011B01009709F461C0AB
:100D50001982AA24BB2462E0462E512C480E591E4B
:100D600054E0652E712C680E791E46E0842E912C7D
:100D7000880E991E28C0C7010496880F991F8C0DF4
:100D80009D1DBE016F5F7F4F0E947A058981813072
:100D900041F484EC99E00197F1F7F8018081F101C9
:100DA00080830894E11CF11C0F5F1F4FF4E0EF16E5
:100DB000F10409F70894A11CB11C84E0A816B10441
:100DC00011F480E027C0C60160E00E945005C20116
:100DD00060E00E945005C30160E00E945005C4011C
:100DE00060E00E945005C501880F991F8C0D9D1D64
:100DF00061E00E94500584EC99E00197F1F78501CC
:100E0000000F111F000F111F0B5D1E4FEE24FF245A
:100E1000B2CF81E00F90CF91DF911F910F91FF90A2
:100E2000EF90DF90CF90BF90AF909F908F907F908A
:100E30006F905F904F903F902F900895CF93DF93E6
:100E4000EC01009711F481E030C08981877E8983AD
:100E5000CE010E94AD058B81877E8B83CE010296E9
:100E60000E94AD058D81877E8D83CE0104960E9400
:100E7000AD058F81877E8F83CE0106960E94AD05DA
:100E8000CE01089661E00E940A05CE010A9661E053
:100E90000E940A05CE010C9661E00E940A05CE016F
:100EA0000E9661E00E940A0580E0DF91CF910895DF
:100EB0000F931F9383E491E062E471E00E9470035A
:100EC00009E111E0C80161E043E02AE30E94E6097C
:100ED000C80161E044E0209143010E948C09C801EF
:100EE00061E041E0209142010E948C091F910F9125
:100EF000089589EF90E00E94AD058BEF90E00E948D
:100F0000AD058DEF90E00E94AD058FEF90E00E945F
:100F1000AD0581E091E00E94AD0583E091E00E9483
:100F2000AD0585E091E00E94AD0587E091E00E946B
:100F3000AD0589E091E00E94AD058BE091E00E9453
:100F4000AD058DE091E00E94AD058DED90E00E9431
:100F5000790B81EE90E00E94790B85EE90E00E9483
:100F6000790B89EE90E00E94790B8DEE90E00E9463
:100F7000790B81EF90E00E94790B85EF90E00E9461
:100F8000790B8FE091E00E94790B83E191E00E9460
:100F9000790B89E191E00E94840A0E942C0381E090
:100FA0000895EF92FF920F931F93CF93DF938C01DD
:100FB000F62E009711F481E029C060E00E945005F0
:100FC000C0E0D0E0EF2CFF24CE010296880F991FDD
:100FD000B7010C2E02C0759567950A94E2F761700F
:100FE000800F911F0E9450052196C830D10561F7EE
:100FF0000E5F1F4FC80161E00E94500582EE94E031
:101000000197F1F7C80160E00E945005DF91CF9190
:101010001F910F91FF90EF900895623069F0633057
:1010200018F4613029F406C0633041F0643059F09F
:1010300080E00895415803C0415401C04D56642FCB
:101040000E94D10708954D52642F0E94D107089540
:10105000EF92FF920F931F93CF93DF938C01F62EA5
:10106000009711F481E029C061E00E945005C0E0C2
:10107000D0E0EF2CFF24CE010296880F991FB70114
:101080000C2E02C0759567950A94E2F76170800F87
:10109000911F0E9450052196C830D10561F70E5F5F
:1010A0001F4FC80161E00E94500582EE94E0019755
:1010B000F1F7C80160E00E945005DF91CF911F91C8
:1010C0000F91FF90EF9008950F931F93CF93DF93AD
:1010D0008C01EB01009711F481E009C080E004C0AD
:1010E0002196C8010E94280868816623C9F7DF910C
:1010F000CF911F910F9108950F931F93CF93DF937B
:10110000EC018901009711F481E006C00E940D08EE
:10111000CE01B8010E946408DF91CF911F910F9119
:1011200008951F93CF93DF93EC01122F009711F4D2
:1011300081E006C00E940D08CE01612F0E942808A0
:10114000DF91CF911F910895BF92CF92DF92EF92DE
:10115000FF920F931F93CF93DF937C01162FB42E32
:101160006901009711F481E01EC0602F70E0685F94
:101170007F4F43E0660F771F4A95E1F70E94D10742
:10118000C0E0D0E0F601EC0FFD1FC70160810E94B6
:1011900028082196C830D105A9F7C701612F4B2D2A
:1011A000202F0E949108DF91CF911F910F91FF9006
:1011B000EF90DF90CF90BF900895EF92FF921F9332
:1011C0007C01162F617004960E945005612F669570
:1011D0006170C70106960E94500516951695612FFD
:1011E0006170C70108960E94500516951170C701DD
:1011F0000A96612F0E9450051F91FF90EF9008956D
:101200000F931F938C010E5F1F4FC80161E00E9476
:10121000500582EE94E00197F1F7C80160E00E946A
:1012200050051F910F9108951F93CF93DF93EC0109
:10123000162F009711F481E013C060E00E94500562
:10124000612F62956F70CE010E94DD08CE010E9471
:101250000009CE01612F0E94DD08CE010E94000925
:10126000DF91CF911F91089561E00E9414090895C4
:10127000623069F0633018F4613029F406C06330DD
:1012800041F0643059F080E00895415803C0415462
:1012900001C04D56642F0E94140908954D52642FC9
:1012A0000E94140908951F93CF93DF93EC01162F2A
:1012B000009711F481E013C061E00E945005612F96
:1012C00062956F70CE010E94DD08CE010E94000978
:1012D000CE01612F0E94DD08CE010E940009DF913E
:1012E000CF911F9108950F931F93CF93DF938C019C
:1012F000E901009711F481E00AC00E94380904C096
:101300002196C8010E94530968816623C9F7DF91BD
:10131000CF911F910F910895CF92DF92EF92FF929C
:101320000F931F93DF93CF9300D000D0CDB7DEB7DC
:101330007C01D62EC42E00D000D000D0EDB7FEB771
:1013400031968E010F5F1F4FADB7BEB712961C933B
:101350000E93119789E990E0938382832483158209
:101360000E94990B8DB79EB706960FB6F8949EBF54
:101370000FBE8DBFC7016D2D4C2D98010E947309C2
:1013800081E00F900F900F900F90CF91DF911F9100
:101390000F91FF90EF90DF90CF9008950F931F93E0
:1013A000CF93DF938C01EB01009711F481E009C02A
:1013B00080E004C02196C8010E9453096881662319
:1013C000C9F7DF91CF911F910F9108951F93CF938C
:1013D000DF93EC01122F009711F481E006C00E9408
:1013E0003809CE01612F0E945309DF91CF911F91DF
:1013F0000895BF92CF92DF92EF92FF920F931F93C7
:10140000CF93DF937C01162FB42E6901009711F45E
:1014100081E01EC0602F70E0685F7F4F53E0660F71
:10142000771F5A95E1F70E941409C0E0D0E0F60159
:10143000EC0FFD1FC70160810E9453092196C8303F
:10144000D105A9F7C701612F4B2D202F0E94E60976
:10145000DF91CF911F910F91FF90EF90DF90CF9090
:10146000BF9008950F931F93CF93DF938C01009744
:1014700011F481E044C00E94AD05C80102960E94AB
:10148000AD05C0E0D0E02296CE01880F991F800FF5
:10149000911F0E94AD052197C830D105A1F788E8BA
:1014A00093E10197F1F7C80168E30E94D10782EE4A
:1014B00094E00197F1F7C80168E30E94D1078CE737
:1014C00092E90197F1F7C80168E30E94D107C801CA
:1014D00061E00E94D107C80162E00E94D107C80103
:1014E00066E00E94D107C8016CE00E94D107C801E4
:1014F00068E30E94D107C80160E80E94D107DF912C
:10150000CF911F910F910895EF92FF920F931F9328
:10151000DF93CF93CDB7DEB7EA970FB6F894DEBF6F
:101520000FBECDBF7C01009711F481E090C0DE01B9
:101530005496ECE9F0E083E101900D928150E1F7DF
:10154000DE011196EFEAF0E083E101900D92815007
:10155000E1F7DE019796E2ECF0E084E101900D9274
:101560008150E1F7C70160E00E940A05C7010296B9
:1015700060E00E940A05C701049660E00E940A0527
:10158000C701069660E00E940A05C701089660E060
:101590000E940A05C7010A9660E00E940A0588E8D1
:1015A00093E10197F1F7C70168E30E94140982EE05
:1015B00094E00197F1F7C70168E30E9414090CE772
:1015C00012E9C8010197F1F7C70168E30E94140905
:1015D000C70161E00E941409C70162E00E9414097A
:1015E000C70166E00E941409C7016CE00E9414095B
:1015F000C70168E20E941409C70160E80E9414094B
:10160000C701BE01695D7F4F0E94CE09C8010197E5
:10161000F1F7C70161E00E941409C701BE016F5FC5
:101620007F4F0E94CE09C8010197F1F7C70161E021
:101630000E941409C701BE016C5E7F4F0E94CE0953
:10164000C8010197F1F7C70161E00E941409EA9609
:101650000FB6F894DEBF0FBECDBFCF91DF911F91C3
:101660000F91FF90EF900895EF92FF920F931F93C9
:10167000DF93CF9300D00F92CDB7DEB78C017B0103
:10168000FC012081918197700115110539F16115D7
:10169000710521F11B821A828B81887F892B8B83B4
:1016A0002A831982CE010296BE016F5F7F4F0E948E
:1016B0007A05F8018381882329F48981813051F0EA
:1016C00081E005C0813041F48981813019F4F7014E
:1016D000808302C0F701108280E001C081E00F909A
:1016E0000F900F90CF91DF911F910F91FF90EF908E
:1016F0000895009711F481E0089561E00E940A05C1
:1017000008950E944B008091D700882319F0813002
:1017100031F403C00E94820208950E94FC000895E3
:101720000E9479070E9449030E94810B0E947F005A
:10173000FBCFAEE0B0E0EFE9FBE00C94480E0D8982
:101740001E8986E08C831A8309838FEF9FE79E832F
:101750008D839E01275E3F4FCE0101966F89788D64
:10176000A9010E94BD0B2F813885020F131FF801BC
:1017700010822E96E4E00C94640EABE0B0E0E3EC53
:10178000FBE00C943A0E3C012B015A01FC0117823C
:101790001682838181FD03C06FEF7FEFC6C19AE09F
:1017A000892E1E010894211C311CF3012381F201B2
:1017B00023FD859123FF81912F01882309F4B2C174
:1017C000853239F423FD859123FF81912F018532E4
:1017D00029F490E0B3010E94B00DE7CF982FFF24C9
:1017E000EE249924FFE1FF15D0F09B3269F09C3282
:1017F00028F4903259F0933291F40EC09D3249F0A2
:10180000903369F441E024C052E0F52A84E0F82ADC
:1018100028C098E0F92A25C0E0E1FE2A22C0F7FCA2
:1018200029C0892F80538A3070F4F6FE05C0989C39
:10183000902C1124980E15C0E89CE02C1124E80E81
:10184000F0E2FF2A0EC09E3229F4F6FC6BC140E4A0
:10185000F42A07C09C3619F450E8F52A02C09836DD
:1018600049F4F20123FD959123FF91912F019923D2
:1018700009F0B8CF892F8554833018F08052833017
:1018800038F444E050E0A40EB51E5FE359830FC066
:10189000933631F0933779F0933509F056C020C074
:1018A000F5018081898342E050E0A40EB51E6101FC
:1018B00001E010E012C0F501C080D180F6FC03C049
:1018C0006FEF7FEF02C0692D70E042E050E0A40EA0
:1018D000B51EC6010E94A50D8C015FE7F52214C05C
:1018E000F501C080D180F6FC03C06FEF7FEF02C02E
:1018F000692D70E042E050E0A40EB51EC6010E94C2
:101900009A0D8C0150E8F52AF3FE07C01AC080E258
:1019100090E0B3010E94B00DEA948E2D90E008177C
:101920001907A8F30EC0F601F7FC8591F7FE819127
:101930006F0190E0B3010E94B00DE110EA940150F4
:1019400010400115110579F7EAC0943611F0993667
:1019500069F5F7FE08C0F50120813181428153818C
:1019600084E090E00AC0F501808191819C014427C8
:1019700037FD4095542F82E090E0A80EB91E9FE6F7
:10198000F92257FF09C050954095309521953F4F5A
:101990004F4F5F4FE0E8FE2ACA01B901A1012AE0DA
:1019A00030E00E94DC0DD82ED21840C0953729F4C3
:1019B0001F2D1F7E2AE030E01DC01F2D197F9F368E
:1019C00061F0903720F4983509F0ACC00FC0903723
:1019D00039F0983709F0A6C004C028E030E00AC00A
:1019E000106114FD146020E130E004C014FD1660A5
:1019F00020E132E017FF08C0F5016081718182812A
:101A0000938144E050E008C0F50180819181BC01E0
:101A100080E090E042E050E0A40EB51EA1010E94DB
:101A2000DC0DD82ED2188FE7F82EF122F6FE0BC06F
:101A30005EEFF522D91438F4F4FE07C0F2FC05C0BD
:101A40008FEEF82202C01D2D01C0192DF4FE0DC02D
:101A5000FE01ED0DF11D8081803319F499EEF9221C
:101A600008C01F5FF2FE05C003C08F2D867809F005
:101A70001F5F0F2DF3FC14C0F0FE0FC01E1510F0F9
:101A80009D2C0BC09D2C9E0C911A1E2D06C080E231
:101A900090E0B3010E94B00D1F5F1E15C0F304C09B
:101AA0001E1510F4E11A01C0EE2404FF0FC080E3FC
:101AB00090E0B3010E94B00D02FF1DC001FD03C004
:101AC00088E790E00EC088E590E00BC0802F867814
:101AD00091F001FF02C08BE201C080E2F7FC8DE2D1
:101AE00090E0B3010E94B00D06C080E390E0B30126
:101AF0000E94B00D9A94D914C0F3DA94F101ED0D5F
:101B0000F11D808190E0B3010E94B00DDD20A9F7A6
:101B100006C080E290E0B3010E94B00DEA94EE208E
:101B2000C1F743CEF30166817781CB012B96E2E1C9
:101B30000C94560EFC010590615070400110D8F7CE
:101B4000809590958E0F9F1F0895FC016150704005
:101B500001900110D8F7809590958E0F9F1F0895E2
:101B60000F931F93CF93DF938C01EB018B8181FF48
:101B70001BC082FF0DC02E813F818C819D81281763
:101B8000390764F4E881F9810193F983E88306C099
:101B9000E885F985802F0995892B31F48E819F8105
:101BA00001969F838E8302C00FEF1FEFC801DF9164
:101BB000CF911F910F910895FA01AA27283051F172
:101BC000203181F1E8946F936E7F6E5F7F4F8F4F6E
:101BD0009F4FAF4FB1E03ED0B4E03CD0670F781FCD
:101BE000891F9A1FA11D680F791F8A1F911DA11DB2
:101BF0006A0F711D811D911DA11D20D009F46894EB
:101C00003F912AE0269F11243019305D3193DEF692
:101C1000CF010895462F4770405D4193B3E00FD048
:101C2000C9F7F6CF462F4F70405D4A3318F0495D33
:101C300031FD4052419302D0A9F7EACFB4E0A69516
:101C40009795879577956795BA95C9F70097610538
:101C5000710508959B01AC010A2E0694579547958E
:101C600037952795BA95C9F7620F731F841F951F83
:101C7000A01D08952F923F924F925F926F927F9294
:101C80008F929F92AF92BF92CF92DF92EF92FF928C
:101C90000F931F93CF93DF93CDB7DEB7CA1BDB0B38
:101CA0000FB6F894DEBF0FBECDBF09942A883988DD
:101CB00048885F846E847D848C849B84AA84B984E4
:101CC000C884DF80EE80FD800C811B81AA81B981F0
:101CD000CE0FD11D0FB6F894DEBF0FBECDBFED0104
:061CE0000895F894FFCF07
:101CE600776174657200686561746572006472611B
:101CF600696E007269676874006C65667400646F6B
:101D06006F7200416C617173616120436F6D706128
:101D16006E790020203A2020002564004C63642060
:101D260049732052656164792E2E2E2E2E2E004C7C
:101D3600636420696E69616C697A65642E2E2E2E45
:101D46002E004C636420696E69616C697A696E67FE
:101D56002E2E2E2E2E000603010105390333010116
:101D66000133030101330401013305010133060187
:101D76000133070101300101013604360536063606
:101D8600073007300436033006300533083008368E
:101D960000010133020101360039003902390339E5
:101DA60004390539063738392F3435362A31323376
:061DB6002D23303D2B003F
:00000001FF
